{
	"Solidity_Fundation/grammar_1/Ref_Type.sol": {
		"Reference": {
			"abi": [
				{
					"inputs": [],
					"name": "UnitAndTime",
					"outputs": [
						{
							"internalType": "bool",
							"name": "",
							"type": "bool"
						},
						{
							"internalType": "bool",
							"name": "",
							"type": "bool"
						},
						{
							"internalType": "bool",
							"name": "",
							"type": "bool"
						}
					],
					"stateMutability": "pure",
					"type": "function"
				},
				{
					"inputs": [],
					"name": "changeArray",
					"outputs": [],
					"stateMutability": "nonpayable",
					"type": "function"
				},
				{
					"inputs": [],
					"name": "global",
					"outputs": [
						{
							"internalType": "address",
							"name": "",
							"type": "address"
						},
						{
							"internalType": "uint256",
							"name": "",
							"type": "uint256"
						},
						{
							"internalType": "bytes",
							"name": "",
							"type": "bytes"
						}
					],
					"stateMutability": "nonpayable",
					"type": "function"
				},
				{
					"inputs": [],
					"name": "global2",
					"outputs": [
						{
							"internalType": "bytes32",
							"name": "",
							"type": "bytes32"
						},
						{
							"internalType": "address",
							"name": "",
							"type": "address"
						},
						{
							"internalType": "uint256",
							"name": "",
							"type": "uint256"
						},
						{
							"internalType": "uint256",
							"name": "",
							"type": "uint256"
						}
					],
					"stateMutability": "nonpayable",
					"type": "function"
				},
				{
					"inputs": [],
					"name": "global3",
					"outputs": [
						{
							"internalType": "uint256",
							"name": "",
							"type": "uint256"
						},
						{
							"internalType": "bytes4",
							"name": "",
							"type": "bytes4"
						},
						{
							"internalType": "uint256",
							"name": "",
							"type": "uint256"
						}
					],
					"stateMutability": "payable",
					"type": "function"
				},
				{
					"inputs": [
						{
							"internalType": "uint256",
							"name": "",
							"type": "uint256"
						}
					],
					"name": "x",
					"outputs": [
						{
							"internalType": "uint256",
							"name": "",
							"type": "uint256"
						}
					],
					"stateMutability": "view",
					"type": "function"
				}
			],
			"devdoc": {
				"kind": "dev",
				"methods": {},
				"version": 1
			},
			"evm": {
				"assembly": "    /* \"Solidity_Fundation/grammar_1/Ref_Type.sol\":63:1545  contract Reference {... */\n  mstore(0x40, 0x80)\n    /* \"Solidity_Fundation/grammar_1/Ref_Type.sol\":222:247  uint[] public x = [1,2,3] */\n  mload(0x40)\n  dup1\n  0x60\n  add\n  0x40\n  mstore\n  dup1\n    /* \"Solidity_Fundation/grammar_1/Ref_Type.sol\":241:242  1 */\n  0x01\n    /* \"Solidity_Fundation/grammar_1/Ref_Type.sol\":222:247  uint[] public x = [1,2,3] */\n  0xff\n  and\n  dup2\n  mstore\n  0x20\n  add\n    /* \"Solidity_Fundation/grammar_1/Ref_Type.sol\":243:244  2 */\n  0x02\n    /* \"Solidity_Fundation/grammar_1/Ref_Type.sol\":222:247  uint[] public x = [1,2,3] */\n  0xff\n  and\n  dup2\n  mstore\n  0x20\n  add\n    /* \"Solidity_Fundation/grammar_1/Ref_Type.sol\":245:246  3 */\n  0x03\n    /* \"Solidity_Fundation/grammar_1/Ref_Type.sol\":222:247  uint[] public x = [1,2,3] */\n  0xff\n  and\n  dup2\n  mstore\n  pop\n  0x00\n  swap1\n  0x03\n  tag_1\n  swap3\n  swap2\n  swap1\n  tag_2\n  jump\t// in\ntag_1:\n  pop\n    /* \"Solidity_Fundation/grammar_1/Ref_Type.sol\":63:1545  contract Reference {... */\n  callvalue\n  dup1\n  iszero\n  tag_3\n  jumpi\n  revert(0x00, 0x00)\ntag_3:\n  pop\n  jump(tag_4)\ntag_2:\n  dup3\n  dup1\n  sload\n  dup3\n  dup3\n  sstore\n  swap1\n  0x00\n  mstore\n  keccak256(0x00, 0x20)\n  swap1\n  dup2\n  add\n  swap3\n  dup3\n  iszero\n  tag_5\n  jumpi\n  swap2\n  0x20\n  mul\n  dup3\n  add\ntag_6:\n  dup3\n  dup2\n  gt\n  iszero\n  tag_7\n  jumpi\n  dup3\n  mload\n  dup3\n  swap1\n  0xff\n  and\n  swap1\n  sstore\n  swap2\n  0x20\n  add\n  swap2\n  swap1\n  0x01\n  add\n  swap1\n  jump(tag_6)\ntag_7:\ntag_5:\n  pop\n  swap1\n  pop\n  tag_8\n  swap2\n  swap1\n  tag_9\n  jump\t// in\ntag_8:\n  pop\n  swap1\n  jump\t// out\ntag_9:\ntag_10:\n  dup1\n  dup3\n  gt\n  iszero\n  tag_11\n  jumpi\n  0x00\n  dup2\n  0x00\n  swap1\n  sstore\n  pop\n  0x01\n  add\n  jump(tag_10)\ntag_11:\n  pop\n  swap1\n  jump\t// out\ntag_4:\n  dataSize(sub_0)\n  dup1\n  dataOffset(sub_0)\n  0x00\n  codecopy\n  0x00\n  return\nstop\n\nsub_0: assembly {\n        /* \"Solidity_Fundation/grammar_1/Ref_Type.sol\":63:1545  contract Reference {... */\n      mstore(0x40, 0x80)\n      jumpi(tag_1, lt(calldatasize, 0x04))\n      shr(0xe0, calldataload(0x00))\n      dup1\n      0x05b97db6\n      eq\n      tag_2\n      jumpi\n      dup1\n      0x2b723b7f\n      eq\n      tag_3\n      jumpi\n      dup1\n      0x3f4263ef\n      eq\n      tag_4\n      jumpi\n      dup1\n      0xa05f9906\n      eq\n      tag_5\n      jumpi\n      dup1\n      0xa43d423f\n      eq\n      tag_6\n      jumpi\n      dup1\n      0xe1640d85\n      eq\n      tag_7\n      jumpi\n    tag_1:\n      revert(0x00, 0x00)\n        /* \"Solidity_Fundation/grammar_1/Ref_Type.sol\":760:1085  function global2() external   returns(bytes32,address,uint,uint){... */\n    tag_2:\n      callvalue\n      dup1\n      iszero\n      tag_8\n      jumpi\n      revert(0x00, 0x00)\n    tag_8:\n      pop\n      tag_9\n      tag_10\n      jump\t// in\n    tag_9:\n      mload(0x40)\n      tag_11\n      swap5\n      swap4\n      swap3\n      swap2\n      swap1\n      tag_12\n      jump\t// in\n    tag_11:\n      mload(0x40)\n      dup1\n      swap2\n      sub\n      swap1\n      return\n        /* \"Solidity_Fundation/grammar_1/Ref_Type.sol\":252:455  function changeArray() public {... */\n    tag_3:\n      callvalue\n      dup1\n      iszero\n      tag_13\n      jumpi\n      revert(0x00, 0x00)\n    tag_13:\n      pop\n      tag_14\n      tag_15\n      jump\t// in\n    tag_14:\n      stop\n        /* \"Solidity_Fundation/grammar_1/Ref_Type.sol\":222:247  uint[] public x = [1,2,3] */\n    tag_4:\n      callvalue\n      dup1\n      iszero\n      tag_16\n      jumpi\n      revert(0x00, 0x00)\n    tag_16:\n      pop\n      tag_17\n      0x04\n      dup1\n      calldatasize\n      sub\n      dup2\n      add\n      swap1\n      tag_18\n      swap2\n      swap1\n      tag_19\n      jump\t// in\n    tag_18:\n      tag_20\n      jump\t// in\n    tag_17:\n      mload(0x40)\n      tag_21\n      swap2\n      swap1\n      tag_22\n      jump\t// in\n    tag_21:\n      mload(0x40)\n      dup1\n      swap2\n      sub\n      swap1\n      return\n        /* \"Solidity_Fundation/grammar_1/Ref_Type.sol\":537:756  function global() external  returns(address,uint,bytes memory) {... */\n    tag_5:\n      callvalue\n      dup1\n      iszero\n      tag_23\n      jumpi\n      revert(0x00, 0x00)\n    tag_23:\n      pop\n      tag_24\n      tag_25\n      jump\t// in\n    tag_24:\n      mload(0x40)\n      tag_26\n      swap4\n      swap3\n      swap2\n      swap1\n      tag_27\n      jump\t// in\n    tag_26:\n      mload(0x40)\n      dup1\n      swap2\n      sub\n      swap1\n      return\n        /* \"Solidity_Fundation/grammar_1/Ref_Type.sol\":1404:1540  function UnitAndTime() external pure returns (bool,bool,bool) {... */\n    tag_6:\n      callvalue\n      dup1\n      iszero\n      tag_28\n      jumpi\n      revert(0x00, 0x00)\n    tag_28:\n      pop\n      tag_29\n      tag_30\n      jump\t// in\n    tag_29:\n      mload(0x40)\n      tag_31\n      swap4\n      swap3\n      swap2\n      swap1\n      tag_32\n      jump\t// in\n    tag_31:\n      mload(0x40)\n      dup1\n      swap2\n      sub\n      swap1\n      return\n        /* \"Solidity_Fundation/grammar_1/Ref_Type.sol\":1089:1369  function global3() external  payable returns(uint,bytes4,uint) {... */\n    tag_7:\n      tag_33\n      tag_34\n      jump\t// in\n    tag_33:\n      mload(0x40)\n      tag_35\n      swap4\n      swap3\n      swap2\n      swap1\n      tag_36\n      jump\t// in\n    tag_35:\n      mload(0x40)\n      dup1\n      swap2\n      sub\n      swap1\n      return\n        /* \"Solidity_Fundation/grammar_1/Ref_Type.sol\":760:1085  function global2() external   returns(bytes32,address,uint,uint){... */\n    tag_10:\n        /* \"Solidity_Fundation/grammar_1/Ref_Type.sol\":798:805  bytes32 */\n      0x00\n        /* \"Solidity_Fundation/grammar_1/Ref_Type.sol\":806:813  address */\n      0x00\n        /* \"Solidity_Fundation/grammar_1/Ref_Type.sol\":814:818  uint */\n      0x00\n        /* \"Solidity_Fundation/grammar_1/Ref_Type.sol\":819:823  uint */\n      0x00\n        /* \"Solidity_Fundation/grammar_1/Ref_Type.sol\":827:836  bytes32 d */\n      0x00\n        /* \"Solidity_Fundation/grammar_1/Ref_Type.sol\":864:865  1 */\n      0x01\n        /* \"Solidity_Fundation/grammar_1/Ref_Type.sol\":849:861  block.number */\n      number\n        /* \"Solidity_Fundation/grammar_1/Ref_Type.sol\":849:865  block.number - 1 */\n      tag_38\n      swap2\n      swap1\n      tag_39\n      jump\t// in\n    tag_38:\n        /* \"Solidity_Fundation/grammar_1/Ref_Type.sol\":839:866  blockhash(block.number - 1) */\n      blockhash\n        /* \"Solidity_Fundation/grammar_1/Ref_Type.sol\":827:866  bytes32 d = blockhash(block.number - 1) */\n      swap1\n      pop\n        /* \"Solidity_Fundation/grammar_1/Ref_Type.sol\":893:910  address payable e */\n      0x00\n        /* \"Solidity_Fundation/grammar_1/Ref_Type.sol\":913:927  block.coinbase */\n      coinbase\n        /* \"Solidity_Fundation/grammar_1/Ref_Type.sol\":893:927  address payable e = block.coinbase */\n      swap1\n      pop\n        /* \"Solidity_Fundation/grammar_1/Ref_Type.sol\":957:963  uint f */\n      0x00\n        /* \"Solidity_Fundation/grammar_1/Ref_Type.sol\":966:980  block.gaslimit */\n      gaslimit\n        /* \"Solidity_Fundation/grammar_1/Ref_Type.sol\":957:980  uint f = block.gaslimit */\n      swap1\n      pop\n        /* \"Solidity_Fundation/grammar_1/Ref_Type.sol\":1009:1015  uint g */\n      0x00\n        /* \"Solidity_Fundation/grammar_1/Ref_Type.sol\":1018:1033  block.timestamp */\n      timestamp\n        /* \"Solidity_Fundation/grammar_1/Ref_Type.sol\":1009:1033  uint g = block.timestamp */\n      swap1\n      pop\n        /* \"Solidity_Fundation/grammar_1/Ref_Type.sol\":1073:1074  d */\n      dup4\n        /* \"Solidity_Fundation/grammar_1/Ref_Type.sol\":1075:1076  e */\n      dup4\n        /* \"Solidity_Fundation/grammar_1/Ref_Type.sol\":1077:1078  f */\n      dup4\n        /* \"Solidity_Fundation/grammar_1/Ref_Type.sol\":1079:1080  g */\n      dup4\n        /* \"Solidity_Fundation/grammar_1/Ref_Type.sol\":1065:1081  return (d,e,f,g) */\n      swap8\n      pop\n      swap8\n      pop\n      swap8\n      pop\n      swap8\n      pop\n      pop\n      pop\n      pop\n      pop\n        /* \"Solidity_Fundation/grammar_1/Ref_Type.sol\":760:1085  function global2() external   returns(bytes32,address,uint,uint){... */\n      swap1\n      swap2\n      swap3\n      swap4\n      jump\t// out\n        /* \"Solidity_Fundation/grammar_1/Ref_Type.sol\":252:455  function changeArray() public {... */\n    tag_15:\n        /* \"Solidity_Fundation/grammar_1/Ref_Type.sol\":290:306  uint[] storage y */\n      0x00\n        /* \"Solidity_Fundation/grammar_1/Ref_Type.sol\":309:310  x */\n      0x00\n        /* \"Solidity_Fundation/grammar_1/Ref_Type.sol\":290:310  uint[] storage y = x */\n      swap1\n      pop\n        /* \"Solidity_Fundation/grammar_1/Ref_Type.sol\":446:449  250 */\n      0xfa\n        /* \"Solidity_Fundation/grammar_1/Ref_Type.sol\":439:440  y */\n      dup2\n        /* \"Solidity_Fundation/grammar_1/Ref_Type.sol\":441:442  1 */\n      0x01\n        /* \"Solidity_Fundation/grammar_1/Ref_Type.sol\":439:443  y[1] */\n      dup2\n      sload\n      dup2\n      lt\n      tag_41\n      jumpi\n      tag_42\n      tag_43\n      jump\t// in\n    tag_42:\n    tag_41:\n      swap1\n      0x00\n      mstore\n      keccak256(0x00, 0x20)\n      add\n        /* \"Solidity_Fundation/grammar_1/Ref_Type.sol\":439:449  y[1] = 250 */\n      dup2\n      swap1\n      sstore\n      pop\n        /* \"Solidity_Fundation/grammar_1/Ref_Type.sol\":282:455  {... */\n      pop\n        /* \"Solidity_Fundation/grammar_1/Ref_Type.sol\":252:455  function changeArray() public {... */\n      jump\t// out\n        /* \"Solidity_Fundation/grammar_1/Ref_Type.sol\":222:247  uint[] public x = [1,2,3] */\n    tag_20:\n      0x00\n      dup2\n      dup2\n      sload\n      dup2\n      lt\n      tag_45\n      jumpi\n      0x00\n      dup1\n      revert\n    tag_45:\n      swap1\n      0x00\n      mstore\n      keccak256(0x00, 0x20)\n      add\n      0x00\n      swap2\n      pop\n      swap1\n      pop\n      sload\n      dup2\n      jump\t// out\n        /* \"Solidity_Fundation/grammar_1/Ref_Type.sol\":537:756  function global() external  returns(address,uint,bytes memory) {... */\n    tag_25:\n        /* \"Solidity_Fundation/grammar_1/Ref_Type.sol\":573:580  address */\n      0x00\n        /* \"Solidity_Fundation/grammar_1/Ref_Type.sol\":581:585  uint */\n      0x00\n        /* \"Solidity_Fundation/grammar_1/Ref_Type.sol\":586:598  bytes memory */\n      0x60\n        /* \"Solidity_Fundation/grammar_1/Ref_Type.sol\":603:612  address a */\n      0x00\n        /* \"Solidity_Fundation/grammar_1/Ref_Type.sol\":615:625  msg.sender */\n      caller\n        /* \"Solidity_Fundation/grammar_1/Ref_Type.sol\":603:625  address a = msg.sender */\n      swap1\n      pop\n        /* \"Solidity_Fundation/grammar_1/Ref_Type.sol\":646:652  uint b */\n      0x00\n        /* \"Solidity_Fundation/grammar_1/Ref_Type.sol\":655:667  block.number */\n      number\n        /* \"Solidity_Fundation/grammar_1/Ref_Type.sol\":646:667  uint b = block.number */\n      swap1\n      pop\n        /* \"Solidity_Fundation/grammar_1/Ref_Type.sol\":691:705  bytes memory c */\n      0x00\n        /* \"Solidity_Fundation/grammar_1/Ref_Type.sol\":708:716  msg.data */\n      0x00\n      calldatasize\n        /* \"Solidity_Fundation/grammar_1/Ref_Type.sol\":691:716  bytes memory c = msg.data */\n      dup1\n      dup1\n      0x1f\n      add\n      0x20\n      dup1\n      swap2\n      div\n      mul\n      0x20\n      add\n      mload(0x40)\n      swap1\n      dup2\n      add\n      0x40\n      mstore\n      dup1\n      swap4\n      swap3\n      swap2\n      swap1\n      dup2\n      dup2\n      mstore\n      0x20\n      add\n      dup4\n      dup4\n      dup1\n      dup3\n      dup5\n      calldatacopy\n      0x00\n      dup2\n      dup5\n      add\n      mstore\n      not(0x1f)\n      0x1f\n      dup3\n      add\n      and\n      swap1\n      pop\n      dup1\n      dup4\n      add\n      swap3\n      pop\n      pop\n      pop\n      pop\n      pop\n      pop\n      pop\n      swap1\n      pop\n        /* \"Solidity_Fundation/grammar_1/Ref_Type.sol\":744:745  a */\n      dup3\n        /* \"Solidity_Fundation/grammar_1/Ref_Type.sol\":746:747  b */\n      dup3\n        /* \"Solidity_Fundation/grammar_1/Ref_Type.sol\":748:749  c */\n      dup3\n        /* \"Solidity_Fundation/grammar_1/Ref_Type.sol\":736:750  return (a,b,c) */\n      swap6\n      pop\n      swap6\n      pop\n      swap6\n      pop\n      pop\n      pop\n      pop\n        /* \"Solidity_Fundation/grammar_1/Ref_Type.sol\":537:756  function global() external  returns(address,uint,bytes memory) {... */\n      swap1\n      swap2\n      swap3\n      jump\t// out\n        /* \"Solidity_Fundation/grammar_1/Ref_Type.sol\":1404:1540  function UnitAndTime() external pure returns (bool,bool,bool) {... */\n    tag_30:\n        /* \"Solidity_Fundation/grammar_1/Ref_Type.sol\":1450:1454  bool */\n      0x00\n        /* \"Solidity_Fundation/grammar_1/Ref_Type.sol\":1455:1459  bool */\n      0x00\n        /* \"Solidity_Fundation/grammar_1/Ref_Type.sol\":1460:1464  bool */\n      0x00\n        /* \"Solidity_Fundation/grammar_1/Ref_Type.sol\":1490:1498  1e18 wei */\n      0x0de0b6b3a7640000\n        /* \"Solidity_Fundation/grammar_1/Ref_Type.sol\":1479:1486  1 ether */\n      dup1\n        /* \"Solidity_Fundation/grammar_1/Ref_Type.sol\":1479:1498  1 ether == 1e18 wei */\n      eq\n        /* \"Solidity_Fundation/grammar_1/Ref_Type.sol\":1509:1516  1e9 wei */\n      0x3b9aca00\n        /* \"Solidity_Fundation/grammar_1/Ref_Type.sol\":1499:1505  1 gwei */\n      dup1\n        /* \"Solidity_Fundation/grammar_1/Ref_Type.sol\":1499:1516  1 gwei == 1e9 wei */\n      eq\n        /* \"Solidity_Fundation/grammar_1/Ref_Type.sol\":1530:1531  1 */\n      0x01\n        /* \"Solidity_Fundation/grammar_1/Ref_Type.sol\":1517:1526  1 seconds */\n      dup1\n        /* \"Solidity_Fundation/grammar_1/Ref_Type.sol\":1517:1531  1 seconds == 1 */\n      eq\n        /* \"Solidity_Fundation/grammar_1/Ref_Type.sol\":1471:1532  return (1 ether == 1e18 wei,1 gwei == 1e9 wei,1 seconds == 1) */\n      swap3\n      pop\n      swap3\n      pop\n      swap3\n      pop\n        /* \"Solidity_Fundation/grammar_1/Ref_Type.sol\":1404:1540  function UnitAndTime() external pure returns (bool,bool,bool) {... */\n      swap1\n      swap2\n      swap3\n      jump\t// out\n        /* \"Solidity_Fundation/grammar_1/Ref_Type.sol\":1089:1369  function global3() external  payable returns(uint,bytes4,uint) {... */\n    tag_34:\n        /* \"Solidity_Fundation/grammar_1/Ref_Type.sol\":1134:1138  uint */\n      0x00\n        /* \"Solidity_Fundation/grammar_1/Ref_Type.sol\":1139:1145  bytes4 */\n      0x00\n        /* \"Solidity_Fundation/grammar_1/Ref_Type.sol\":1146:1150  uint */\n      0x00\n        /* \"Solidity_Fundation/grammar_1/Ref_Type.sol\":1157:1163  uint h */\n      0x00\n        /* \"Solidity_Fundation/grammar_1/Ref_Type.sol\":1166:1175  gasleft() */\n      gas\n        /* \"Solidity_Fundation/grammar_1/Ref_Type.sol\":1157:1175  uint h = gasleft() */\n      swap1\n      pop\n        /* \"Solidity_Fundation/grammar_1/Ref_Type.sol\":1223:1231  bytes4 i */\n      0x00\n        /* \"Solidity_Fundation/grammar_1/Ref_Type.sol\":1234:1241  msg.sig */\n      and(0xffffffff00000000000000000000000000000000000000000000000000000000, calldataload(0x00))\n        /* \"Solidity_Fundation/grammar_1/Ref_Type.sol\":1223:1241  bytes4 i = msg.sig */\n      swap1\n      pop\n        /* \"Solidity_Fundation/grammar_1/Ref_Type.sol\":1295:1301  uint j */\n      0x00\n        /* \"Solidity_Fundation/grammar_1/Ref_Type.sol\":1304:1313  msg.value */\n      callvalue\n        /* \"Solidity_Fundation/grammar_1/Ref_Type.sol\":1295:1313  uint j = msg.value */\n      swap1\n      pop\n        /* \"Solidity_Fundation/grammar_1/Ref_Type.sol\":1357:1358  h */\n      dup3\n        /* \"Solidity_Fundation/grammar_1/Ref_Type.sol\":1359:1360  i */\n      dup3\n        /* \"Solidity_Fundation/grammar_1/Ref_Type.sol\":1361:1362  j */\n      dup3\n        /* \"Solidity_Fundation/grammar_1/Ref_Type.sol\":1349:1363  return (h,i,j) */\n      swap6\n      pop\n      swap6\n      pop\n      swap6\n      pop\n      pop\n      pop\n      pop\n        /* \"Solidity_Fundation/grammar_1/Ref_Type.sol\":1089:1369  function global3() external  payable returns(uint,bytes4,uint) {... */\n      swap1\n      swap2\n      swap3\n      jump\t// out\n        /* \"#utility.yul\":7:84   */\n    tag_50:\n        /* \"#utility.yul\":44:51   */\n      0x00\n        /* \"#utility.yul\":73:78   */\n      dup2\n        /* \"#utility.yul\":62:78   */\n      swap1\n      pop\n        /* \"#utility.yul\":7:84   */\n      swap2\n      swap1\n      pop\n      jump\t// out\n        /* \"#utility.yul\":90:208   */\n    tag_51:\n        /* \"#utility.yul\":177:201   */\n      tag_75\n        /* \"#utility.yul\":195:200   */\n      dup2\n        /* \"#utility.yul\":177:201   */\n      tag_50\n      jump\t// in\n    tag_75:\n        /* \"#utility.yul\":172:175   */\n      dup3\n        /* \"#utility.yul\":165:202   */\n      mstore\n        /* \"#utility.yul\":90:208   */\n      pop\n      pop\n      jump\t// out\n        /* \"#utility.yul\":214:340   */\n    tag_52:\n        /* \"#utility.yul\":251:258   */\n      0x00\n        /* \"#utility.yul\":291:333   */\n      0xffffffffffffffffffffffffffffffffffffffff\n        /* \"#utility.yul\":284:289   */\n      dup3\n        /* \"#utility.yul\":280:334   */\n      and\n        /* \"#utility.yul\":269:334   */\n      swap1\n      pop\n        /* \"#utility.yul\":214:340   */\n      swap2\n      swap1\n      pop\n      jump\t// out\n        /* \"#utility.yul\":346:442   */\n    tag_53:\n        /* \"#utility.yul\":383:390   */\n      0x00\n        /* \"#utility.yul\":412:436   */\n      tag_78\n        /* \"#utility.yul\":430:435   */\n      dup3\n        /* \"#utility.yul\":412:436   */\n      tag_52\n      jump\t// in\n    tag_78:\n        /* \"#utility.yul\":401:436   */\n      swap1\n      pop\n        /* \"#utility.yul\":346:442   */\n      swap2\n      swap1\n      pop\n      jump\t// out\n        /* \"#utility.yul\":448:566   */\n    tag_54:\n        /* \"#utility.yul\":535:559   */\n      tag_80\n        /* \"#utility.yul\":553:558   */\n      dup2\n        /* \"#utility.yul\":535:559   */\n      tag_53\n      jump\t// in\n    tag_80:\n        /* \"#utility.yul\":530:533   */\n      dup3\n        /* \"#utility.yul\":523:560   */\n      mstore\n        /* \"#utility.yul\":448:566   */\n      pop\n      pop\n      jump\t// out\n        /* \"#utility.yul\":572:649   */\n    tag_55:\n        /* \"#utility.yul\":609:616   */\n      0x00\n        /* \"#utility.yul\":638:643   */\n      dup2\n        /* \"#utility.yul\":627:643   */\n      swap1\n      pop\n        /* \"#utility.yul\":572:649   */\n      swap2\n      swap1\n      pop\n      jump\t// out\n        /* \"#utility.yul\":655:773   */\n    tag_56:\n        /* \"#utility.yul\":742:766   */\n      tag_83\n        /* \"#utility.yul\":760:765   */\n      dup2\n        /* \"#utility.yul\":742:766   */\n      tag_55\n      jump\t// in\n    tag_83:\n        /* \"#utility.yul\":737:740   */\n      dup3\n        /* \"#utility.yul\":730:767   */\n      mstore\n        /* \"#utility.yul\":655:773   */\n      pop\n      pop\n      jump\t// out\n        /* \"#utility.yul\":779:1332   */\n    tag_12:\n        /* \"#utility.yul\":956:960   */\n      0x00\n        /* \"#utility.yul\":994:997   */\n      0x80\n        /* \"#utility.yul\":983:992   */\n      dup3\n        /* \"#utility.yul\":979:998   */\n      add\n        /* \"#utility.yul\":971:998   */\n      swap1\n      pop\n        /* \"#utility.yul\":1008:1079   */\n      tag_85\n        /* \"#utility.yul\":1076:1077   */\n      0x00\n        /* \"#utility.yul\":1065:1074   */\n      dup4\n        /* \"#utility.yul\":1061:1078   */\n      add\n        /* \"#utility.yul\":1052:1058   */\n      dup8\n        /* \"#utility.yul\":1008:1079   */\n      tag_51\n      jump\t// in\n    tag_85:\n        /* \"#utility.yul\":1089:1161   */\n      tag_86\n        /* \"#utility.yul\":1157:1159   */\n      0x20\n        /* \"#utility.yul\":1146:1155   */\n      dup4\n        /* \"#utility.yul\":1142:1160   */\n      add\n        /* \"#utility.yul\":1133:1139   */\n      dup7\n        /* \"#utility.yul\":1089:1161   */\n      tag_54\n      jump\t// in\n    tag_86:\n        /* \"#utility.yul\":1171:1243   */\n      tag_87\n        /* \"#utility.yul\":1239:1241   */\n      0x40\n        /* \"#utility.yul\":1228:1237   */\n      dup4\n        /* \"#utility.yul\":1224:1242   */\n      add\n        /* \"#utility.yul\":1215:1221   */\n      dup6\n        /* \"#utility.yul\":1171:1243   */\n      tag_56\n      jump\t// in\n    tag_87:\n        /* \"#utility.yul\":1253:1325   */\n      tag_88\n        /* \"#utility.yul\":1321:1323   */\n      0x60\n        /* \"#utility.yul\":1310:1319   */\n      dup4\n        /* \"#utility.yul\":1306:1324   */\n      add\n        /* \"#utility.yul\":1297:1303   */\n      dup5\n        /* \"#utility.yul\":1253:1325   */\n      tag_56\n      jump\t// in\n    tag_88:\n        /* \"#utility.yul\":779:1332   */\n      swap6\n      swap5\n      pop\n      pop\n      pop\n      pop\n      pop\n      jump\t// out\n        /* \"#utility.yul\":1419:1536   */\n    tag_58:\n        /* \"#utility.yul\":1528:1529   */\n      0x00\n        /* \"#utility.yul\":1525:1526   */\n      0x00\n        /* \"#utility.yul\":1518:1530   */\n      revert\n        /* \"#utility.yul\":1665:1787   */\n    tag_60:\n        /* \"#utility.yul\":1738:1762   */\n      tag_93\n        /* \"#utility.yul\":1756:1761   */\n      dup2\n        /* \"#utility.yul\":1738:1762   */\n      tag_55\n      jump\t// in\n    tag_93:\n        /* \"#utility.yul\":1731:1736   */\n      dup2\n        /* \"#utility.yul\":1728:1763   */\n      eq\n        /* \"#utility.yul\":1718:1781   */\n      tag_94\n      jumpi\n        /* \"#utility.yul\":1777:1778   */\n      0x00\n        /* \"#utility.yul\":1774:1775   */\n      0x00\n        /* \"#utility.yul\":1767:1779   */\n      revert\n        /* \"#utility.yul\":1718:1781   */\n    tag_94:\n        /* \"#utility.yul\":1665:1787   */\n      pop\n      jump\t// out\n        /* \"#utility.yul\":1793:1932   */\n    tag_61:\n        /* \"#utility.yul\":1839:1844   */\n      0x00\n        /* \"#utility.yul\":1877:1883   */\n      dup2\n        /* \"#utility.yul\":1864:1884   */\n      calldataload\n        /* \"#utility.yul\":1855:1884   */\n      swap1\n      pop\n        /* \"#utility.yul\":1893:1926   */\n      tag_96\n        /* \"#utility.yul\":1920:1925   */\n      dup2\n        /* \"#utility.yul\":1893:1926   */\n      tag_60\n      jump\t// in\n    tag_96:\n        /* \"#utility.yul\":1793:1932   */\n      swap3\n      swap2\n      pop\n      pop\n      jump\t// out\n        /* \"#utility.yul\":1938:2267   */\n    tag_19:\n        /* \"#utility.yul\":1997:2003   */\n      0x00\n        /* \"#utility.yul\":2046:2048   */\n      0x20\n        /* \"#utility.yul\":2034:2043   */\n      dup3\n        /* \"#utility.yul\":2025:2032   */\n      dup5\n        /* \"#utility.yul\":2021:2044   */\n      sub\n        /* \"#utility.yul\":2017:2049   */\n      slt\n        /* \"#utility.yul\":2014:2133   */\n      iszero\n      tag_98\n      jumpi\n        /* \"#utility.yul\":2052:2131   */\n      tag_99\n      tag_58\n      jump\t// in\n    tag_99:\n        /* \"#utility.yul\":2014:2133   */\n    tag_98:\n        /* \"#utility.yul\":2172:2173   */\n      0x00\n        /* \"#utility.yul\":2197:2250   */\n      tag_100\n        /* \"#utility.yul\":2242:2249   */\n      dup5\n        /* \"#utility.yul\":2233:2239   */\n      dup3\n        /* \"#utility.yul\":2222:2231   */\n      dup6\n        /* \"#utility.yul\":2218:2240   */\n      add\n        /* \"#utility.yul\":2197:2250   */\n      tag_61\n      jump\t// in\n    tag_100:\n        /* \"#utility.yul\":2187:2250   */\n      swap2\n      pop\n        /* \"#utility.yul\":2143:2260   */\n      pop\n        /* \"#utility.yul\":1938:2267   */\n      swap3\n      swap2\n      pop\n      pop\n      jump\t// out\n        /* \"#utility.yul\":2273:2495   */\n    tag_22:\n        /* \"#utility.yul\":2366:2370   */\n      0x00\n        /* \"#utility.yul\":2404:2406   */\n      0x20\n        /* \"#utility.yul\":2393:2402   */\n      dup3\n        /* \"#utility.yul\":2389:2407   */\n      add\n        /* \"#utility.yul\":2381:2407   */\n      swap1\n      pop\n        /* \"#utility.yul\":2417:2488   */\n      tag_102\n        /* \"#utility.yul\":2485:2486   */\n      0x00\n        /* \"#utility.yul\":2474:2483   */\n      dup4\n        /* \"#utility.yul\":2470:2487   */\n      add\n        /* \"#utility.yul\":2461:2467   */\n      dup5\n        /* \"#utility.yul\":2417:2488   */\n      tag_56\n      jump\t// in\n    tag_102:\n        /* \"#utility.yul\":2273:2495   */\n      swap3\n      swap2\n      pop\n      pop\n      jump\t// out\n        /* \"#utility.yul\":2501:2599   */\n    tag_62:\n        /* \"#utility.yul\":2552:2558   */\n      0x00\n        /* \"#utility.yul\":2586:2591   */\n      dup2\n        /* \"#utility.yul\":2580:2592   */\n      mload\n        /* \"#utility.yul\":2570:2592   */\n      swap1\n      pop\n        /* \"#utility.yul\":2501:2599   */\n      swap2\n      swap1\n      pop\n      jump\t// out\n        /* \"#utility.yul\":2605:2773   */\n    tag_63:\n        /* \"#utility.yul\":2688:2699   */\n      0x00\n        /* \"#utility.yul\":2722:2728   */\n      dup3\n        /* \"#utility.yul\":2717:2720   */\n      dup3\n        /* \"#utility.yul\":2710:2729   */\n      mstore\n        /* \"#utility.yul\":2762:2766   */\n      0x20\n        /* \"#utility.yul\":2757:2760   */\n      dup3\n        /* \"#utility.yul\":2753:2767   */\n      add\n        /* \"#utility.yul\":2738:2767   */\n      swap1\n      pop\n        /* \"#utility.yul\":2605:2773   */\n      swap3\n      swap2\n      pop\n      pop\n      jump\t// out\n        /* \"#utility.yul\":2779:2918   */\n    tag_64:\n        /* \"#utility.yul\":2868:2874   */\n      dup3\n        /* \"#utility.yul\":2863:2866   */\n      dup2\n        /* \"#utility.yul\":2858:2861   */\n      dup4\n        /* \"#utility.yul\":2852:2875   */\n      mcopy\n        /* \"#utility.yul\":2909:2910   */\n      0x00\n        /* \"#utility.yul\":2900:2906   */\n      dup4\n        /* \"#utility.yul\":2895:2898   */\n      dup4\n        /* \"#utility.yul\":2891:2907   */\n      add\n        /* \"#utility.yul\":2884:2911   */\n      mstore\n        /* \"#utility.yul\":2779:2918   */\n      pop\n      pop\n      pop\n      jump\t// out\n        /* \"#utility.yul\":2924:3026   */\n    tag_65:\n        /* \"#utility.yul\":2965:2971   */\n      0x00\n        /* \"#utility.yul\":3016:3018   */\n      0x1f\n        /* \"#utility.yul\":3012:3019   */\n      not\n        /* \"#utility.yul\":3007:3009   */\n      0x1f\n        /* \"#utility.yul\":3000:3005   */\n      dup4\n        /* \"#utility.yul\":2996:3010   */\n      add\n        /* \"#utility.yul\":2992:3020   */\n      and\n        /* \"#utility.yul\":2982:3020   */\n      swap1\n      pop\n        /* \"#utility.yul\":2924:3026   */\n      swap2\n      swap1\n      pop\n      jump\t// out\n        /* \"#utility.yul\":3032:3405   */\n    tag_66:\n        /* \"#utility.yul\":3118:3121   */\n      0x00\n        /* \"#utility.yul\":3146:3184   */\n      tag_108\n        /* \"#utility.yul\":3178:3183   */\n      dup3\n        /* \"#utility.yul\":3146:3184   */\n      tag_62\n      jump\t// in\n    tag_108:\n        /* \"#utility.yul\":3200:3270   */\n      tag_109\n        /* \"#utility.yul\":3263:3269   */\n      dup2\n        /* \"#utility.yul\":3258:3261   */\n      dup6\n        /* \"#utility.yul\":3200:3270   */\n      tag_63\n      jump\t// in\n    tag_109:\n        /* \"#utility.yul\":3193:3270   */\n      swap4\n      pop\n        /* \"#utility.yul\":3279:3344   */\n      tag_110\n        /* \"#utility.yul\":3337:3343   */\n      dup2\n        /* \"#utility.yul\":3332:3335   */\n      dup6\n        /* \"#utility.yul\":3325:3329   */\n      0x20\n        /* \"#utility.yul\":3318:3323   */\n      dup7\n        /* \"#utility.yul\":3314:3330   */\n      add\n        /* \"#utility.yul\":3279:3344   */\n      tag_64\n      jump\t// in\n    tag_110:\n        /* \"#utility.yul\":3369:3398   */\n      tag_111\n        /* \"#utility.yul\":3391:3397   */\n      dup2\n        /* \"#utility.yul\":3369:3398   */\n      tag_65\n      jump\t// in\n    tag_111:\n        /* \"#utility.yul\":3364:3367   */\n      dup5\n        /* \"#utility.yul\":3360:3399   */\n      add\n        /* \"#utility.yul\":3353:3399   */\n      swap2\n      pop\n        /* \"#utility.yul\":3122:3405   */\n      pop\n        /* \"#utility.yul\":3032:3405   */\n      swap3\n      swap2\n      pop\n      pop\n      jump\t// out\n        /* \"#utility.yul\":3411:3940   */\n    tag_27:\n        /* \"#utility.yul\":3578:3582   */\n      0x00\n        /* \"#utility.yul\":3616:3618   */\n      0x60\n        /* \"#utility.yul\":3605:3614   */\n      dup3\n        /* \"#utility.yul\":3601:3619   */\n      add\n        /* \"#utility.yul\":3593:3619   */\n      swap1\n      pop\n        /* \"#utility.yul\":3629:3700   */\n      tag_113\n        /* \"#utility.yul\":3697:3698   */\n      0x00\n        /* \"#utility.yul\":3686:3695   */\n      dup4\n        /* \"#utility.yul\":3682:3699   */\n      add\n        /* \"#utility.yul\":3673:3679   */\n      dup7\n        /* \"#utility.yul\":3629:3700   */\n      tag_54\n      jump\t// in\n    tag_113:\n        /* \"#utility.yul\":3710:3782   */\n      tag_114\n        /* \"#utility.yul\":3778:3780   */\n      0x20\n        /* \"#utility.yul\":3767:3776   */\n      dup4\n        /* \"#utility.yul\":3763:3781   */\n      add\n        /* \"#utility.yul\":3754:3760   */\n      dup6\n        /* \"#utility.yul\":3710:3782   */\n      tag_56\n      jump\t// in\n    tag_114:\n        /* \"#utility.yul\":3829:3838   */\n      dup2\n        /* \"#utility.yul\":3823:3827   */\n      dup2\n        /* \"#utility.yul\":3819:3839   */\n      sub\n        /* \"#utility.yul\":3814:3816   */\n      0x40\n        /* \"#utility.yul\":3803:3812   */\n      dup4\n        /* \"#utility.yul\":3799:3817   */\n      add\n        /* \"#utility.yul\":3792:3840   */\n      mstore\n        /* \"#utility.yul\":3857:3933   */\n      tag_115\n        /* \"#utility.yul\":3928:3932   */\n      dup2\n        /* \"#utility.yul\":3919:3925   */\n      dup5\n        /* \"#utility.yul\":3857:3933   */\n      tag_66\n      jump\t// in\n    tag_115:\n        /* \"#utility.yul\":3849:3933   */\n      swap1\n      pop\n        /* \"#utility.yul\":3411:3940   */\n      swap5\n      swap4\n      pop\n      pop\n      pop\n      pop\n      jump\t// out\n        /* \"#utility.yul\":3946:4036   */\n    tag_67:\n        /* \"#utility.yul\":3980:3987   */\n      0x00\n        /* \"#utility.yul\":4023:4028   */\n      dup2\n        /* \"#utility.yul\":4016:4029   */\n      iszero\n        /* \"#utility.yul\":4009:4030   */\n      iszero\n        /* \"#utility.yul\":3998:4030   */\n      swap1\n      pop\n        /* \"#utility.yul\":3946:4036   */\n      swap2\n      swap1\n      pop\n      jump\t// out\n        /* \"#utility.yul\":4042:4151   */\n    tag_68:\n        /* \"#utility.yul\":4123:4144   */\n      tag_118\n        /* \"#utility.yul\":4138:4143   */\n      dup2\n        /* \"#utility.yul\":4123:4144   */\n      tag_67\n      jump\t// in\n    tag_118:\n        /* \"#utility.yul\":4118:4121   */\n      dup3\n        /* \"#utility.yul\":4111:4145   */\n      mstore\n        /* \"#utility.yul\":4042:4151   */\n      pop\n      pop\n      jump\t// out\n        /* \"#utility.yul\":4157:4563   */\n    tag_32:\n        /* \"#utility.yul\":4288:4292   */\n      0x00\n        /* \"#utility.yul\":4326:4328   */\n      0x60\n        /* \"#utility.yul\":4315:4324   */\n      dup3\n        /* \"#utility.yul\":4311:4329   */\n      add\n        /* \"#utility.yul\":4303:4329   */\n      swap1\n      pop\n        /* \"#utility.yul\":4339:4404   */\n      tag_120\n        /* \"#utility.yul\":4401:4402   */\n      0x00\n        /* \"#utility.yul\":4390:4399   */\n      dup4\n        /* \"#utility.yul\":4386:4403   */\n      add\n        /* \"#utility.yul\":4377:4383   */\n      dup7\n        /* \"#utility.yul\":4339:4404   */\n      tag_68\n      jump\t// in\n    tag_120:\n        /* \"#utility.yul\":4414:4480   */\n      tag_121\n        /* \"#utility.yul\":4476:4478   */\n      0x20\n        /* \"#utility.yul\":4465:4474   */\n      dup4\n        /* \"#utility.yul\":4461:4479   */\n      add\n        /* \"#utility.yul\":4452:4458   */\n      dup6\n        /* \"#utility.yul\":4414:4480   */\n      tag_68\n      jump\t// in\n    tag_121:\n        /* \"#utility.yul\":4490:4556   */\n      tag_122\n        /* \"#utility.yul\":4552:4554   */\n      0x40\n        /* \"#utility.yul\":4541:4550   */\n      dup4\n        /* \"#utility.yul\":4537:4555   */\n      add\n        /* \"#utility.yul\":4528:4534   */\n      dup5\n        /* \"#utility.yul\":4490:4556   */\n      tag_68\n      jump\t// in\n    tag_122:\n        /* \"#utility.yul\":4157:4563   */\n      swap5\n      swap4\n      pop\n      pop\n      pop\n      pop\n      jump\t// out\n        /* \"#utility.yul\":4569:4718   */\n    tag_69:\n        /* \"#utility.yul\":4605:4612   */\n      0x00\n        /* \"#utility.yul\":4645:4711   */\n      0xffffffff00000000000000000000000000000000000000000000000000000000\n        /* \"#utility.yul\":4638:4643   */\n      dup3\n        /* \"#utility.yul\":4634:4712   */\n      and\n        /* \"#utility.yul\":4623:4712   */\n      swap1\n      pop\n        /* \"#utility.yul\":4569:4718   */\n      swap2\n      swap1\n      pop\n      jump\t// out\n        /* \"#utility.yul\":4724:4839   */\n    tag_70:\n        /* \"#utility.yul\":4809:4832   */\n      tag_125\n        /* \"#utility.yul\":4826:4831   */\n      dup2\n        /* \"#utility.yul\":4809:4832   */\n      tag_69\n      jump\t// in\n    tag_125:\n        /* \"#utility.yul\":4804:4807   */\n      dup3\n        /* \"#utility.yul\":4797:4833   */\n      mstore\n        /* \"#utility.yul\":4724:4839   */\n      pop\n      pop\n      jump\t// out\n        /* \"#utility.yul\":4845:5283   */\n    tag_36:\n        /* \"#utility.yul\":4992:4996   */\n      0x00\n        /* \"#utility.yul\":5030:5032   */\n      0x60\n        /* \"#utility.yul\":5019:5028   */\n      dup3\n        /* \"#utility.yul\":5015:5033   */\n      add\n        /* \"#utility.yul\":5007:5033   */\n      swap1\n      pop\n        /* \"#utility.yul\":5043:5114   */\n      tag_127\n        /* \"#utility.yul\":5111:5112   */\n      0x00\n        /* \"#utility.yul\":5100:5109   */\n      dup4\n        /* \"#utility.yul\":5096:5113   */\n      add\n        /* \"#utility.yul\":5087:5093   */\n      dup7\n        /* \"#utility.yul\":5043:5114   */\n      tag_56\n      jump\t// in\n    tag_127:\n        /* \"#utility.yul\":5124:5194   */\n      tag_128\n        /* \"#utility.yul\":5190:5192   */\n      0x20\n        /* \"#utility.yul\":5179:5188   */\n      dup4\n        /* \"#utility.yul\":5175:5193   */\n      add\n        /* \"#utility.yul\":5166:5172   */\n      dup6\n        /* \"#utility.yul\":5124:5194   */\n      tag_70\n      jump\t// in\n    tag_128:\n        /* \"#utility.yul\":5204:5276   */\n      tag_129\n        /* \"#utility.yul\":5272:5274   */\n      0x40\n        /* \"#utility.yul\":5261:5270   */\n      dup4\n        /* \"#utility.yul\":5257:5275   */\n      add\n        /* \"#utility.yul\":5248:5254   */\n      dup5\n        /* \"#utility.yul\":5204:5276   */\n      tag_56\n      jump\t// in\n    tag_129:\n        /* \"#utility.yul\":4845:5283   */\n      swap5\n      swap4\n      pop\n      pop\n      pop\n      pop\n      jump\t// out\n        /* \"#utility.yul\":5289:5469   */\n    tag_71:\n        /* \"#utility.yul\":5337:5414   */\n      0x4e487b7100000000000000000000000000000000000000000000000000000000\n        /* \"#utility.yul\":5334:5335   */\n      0x00\n        /* \"#utility.yul\":5327:5415   */\n      mstore\n        /* \"#utility.yul\":5434:5438   */\n      0x11\n        /* \"#utility.yul\":5431:5432   */\n      0x04\n        /* \"#utility.yul\":5424:5439   */\n      mstore\n        /* \"#utility.yul\":5458:5462   */\n      0x24\n        /* \"#utility.yul\":5455:5456   */\n      0x00\n        /* \"#utility.yul\":5448:5463   */\n      revert\n        /* \"#utility.yul\":5475:5669   */\n    tag_39:\n        /* \"#utility.yul\":5515:5519   */\n      0x00\n        /* \"#utility.yul\":5535:5555   */\n      tag_132\n        /* \"#utility.yul\":5553:5554   */\n      dup3\n        /* \"#utility.yul\":5535:5555   */\n      tag_55\n      jump\t// in\n    tag_132:\n        /* \"#utility.yul\":5530:5555   */\n      swap2\n      pop\n        /* \"#utility.yul\":5569:5589   */\n      tag_133\n        /* \"#utility.yul\":5587:5588   */\n      dup4\n        /* \"#utility.yul\":5569:5589   */\n      tag_55\n      jump\t// in\n    tag_133:\n        /* \"#utility.yul\":5564:5589   */\n      swap3\n      pop\n        /* \"#utility.yul\":5613:5614   */\n      dup3\n        /* \"#utility.yul\":5610:5611   */\n      dup3\n        /* \"#utility.yul\":5606:5615   */\n      sub\n        /* \"#utility.yul\":5598:5615   */\n      swap1\n      pop\n        /* \"#utility.yul\":5637:5638   */\n      dup2\n        /* \"#utility.yul\":5631:5635   */\n      dup2\n        /* \"#utility.yul\":5628:5639   */\n      gt\n        /* \"#utility.yul\":5625:5662   */\n      iszero\n      tag_134\n      jumpi\n        /* \"#utility.yul\":5642:5660   */\n      tag_135\n      tag_71\n      jump\t// in\n    tag_135:\n        /* \"#utility.yul\":5625:5662   */\n    tag_134:\n        /* \"#utility.yul\":5475:5669   */\n      swap3\n      swap2\n      pop\n      pop\n      jump\t// out\n        /* \"#utility.yul\":5675:5855   */\n    tag_43:\n        /* \"#utility.yul\":5723:5800   */\n      0x4e487b7100000000000000000000000000000000000000000000000000000000\n        /* \"#utility.yul\":5720:5721   */\n      0x00\n        /* \"#utility.yul\":5713:5801   */\n      mstore\n        /* \"#utility.yul\":5820:5824   */\n      0x32\n        /* \"#utility.yul\":5817:5818   */\n      0x04\n        /* \"#utility.yul\":5810:5825   */\n      mstore\n        /* \"#utility.yul\":5844:5848   */\n      0x24\n        /* \"#utility.yul\":5841:5842   */\n      0x00\n        /* \"#utility.yul\":5834:5849   */\n      revert\n\n    auxdata: 0xa26469706673582212203eebc14e894a1b49eb7c1eb61924c0a38827bb2553cebbf4b239410fc3d11d3364736f6c634300081e0033\n}\n",
				"bytecode": {
					"linkReferences": {},
					"object": "60806040526040518060600160405280600160ff168152602001600260ff168152602001600360ff168152505f90600360389291906048565b503480156043575f5ffd5b5060ac565b828054828255905f5260205f209081019282156084579160200282015b828111156083578251829060ff169055916020019190600101906065565b5b509050608f91906093565b5090565b5b8082111560a8575f815f9055506001016094565b5090565b6105ea806100b95f395ff3fe608060405260043610610054575f3560e01c806305b97db6146100585780632b723b7f146100855780633f4263ef1461009b578063a05f9906146100d7578063a43d423f14610103578063e1640d851461012f575b5f5ffd5b348015610063575f5ffd5b5061006c61014f565b60405161007c9493929190610308565b60405180910390f35b348015610090575f5ffd5b50610099610186565b005b3480156100a6575f5ffd5b506100c160048036038101906100bc9190610379565b6101af565b6040516100ce91906103a4565b60405180910390f35b3480156100e2575f5ffd5b506100eb6101ce565b6040516100fa9392919061042d565b60405180910390f35b34801561010e575f5ffd5b50610117610232565b60405161012693929190610483565b60405180910390f35b610137610256565b604051610146939291906104f2565b60405180910390f35b5f5f5f5f5f6001436101619190610554565b4090505f4190505f4590505f4290508383838397509750975097505050505090919293565b5f5f905060fa816001815481106101a05761019f610587565b5b905f5260205f20018190555050565b5f81815481106101bd575f80fd5b905f5260205f20015f915090505481565b5f5f60605f3390505f4390505f5f368080601f0160208091040260200160405190810160405280939291908181526020018383808284375f81840152601f19601f820116905080830192505050505050509050828282955095509550505050909192565b5f5f5f670de0b6b3a76400008014633b9aca00801460018014925092509250909192565b5f5f5f5f5a90505f5f357fffffffff000000000000000000000000000000000000000000000000000000001690505f349050828282955095509550505050909192565b5f819050919050565b6102ab81610299565b82525050565b5f73ffffffffffffffffffffffffffffffffffffffff82169050919050565b5f6102da826102b1565b9050919050565b6102ea816102d0565b82525050565b5f819050919050565b610302816102f0565b82525050565b5f60808201905061031b5f8301876102a2565b61032860208301866102e1565b61033560408301856102f9565b61034260608301846102f9565b95945050505050565b5f5ffd5b610358816102f0565b8114610362575f5ffd5b50565b5f813590506103738161034f565b92915050565b5f6020828403121561038e5761038d61034b565b5b5f61039b84828501610365565b91505092915050565b5f6020820190506103b75f8301846102f9565b92915050565b5f81519050919050565b5f82825260208201905092915050565b8281835e5f83830152505050565b5f601f19601f8301169050919050565b5f6103ff826103bd565b61040981856103c7565b93506104198185602086016103d7565b610422816103e5565b840191505092915050565b5f6060820190506104405f8301866102e1565b61044d60208301856102f9565b818103604083015261045f81846103f5565b9050949350505050565b5f8115159050919050565b61047d81610469565b82525050565b5f6060820190506104965f830186610474565b6104a36020830185610474565b6104b06040830184610474565b949350505050565b5f7fffffffff0000000000000000000000000000000000000000000000000000000082169050919050565b6104ec816104b8565b82525050565b5f6060820190506105055f8301866102f9565b61051260208301856104e3565b61051f60408301846102f9565b949350505050565b7f4e487b71000000000000000000000000000000000000000000000000000000005f52601160045260245ffd5b5f61055e826102f0565b9150610569836102f0565b925082820390508181111561058157610580610527565b5b92915050565b7f4e487b71000000000000000000000000000000000000000000000000000000005f52603260045260245ffdfea26469706673582212203eebc14e894a1b49eb7c1eb61924c0a38827bb2553cebbf4b239410fc3d11d3364736f6c634300081e0033",
					"opcodes": "PUSH1 0x80 PUSH1 0x40 MSTORE PUSH1 0x40 MLOAD DUP1 PUSH1 0x60 ADD PUSH1 0x40 MSTORE DUP1 PUSH1 0x1 PUSH1 0xFF AND DUP2 MSTORE PUSH1 0x20 ADD PUSH1 0x2 PUSH1 0xFF AND DUP2 MSTORE PUSH1 0x20 ADD PUSH1 0x3 PUSH1 0xFF AND DUP2 MSTORE POP PUSH0 SWAP1 PUSH1 0x3 PUSH1 0x38 SWAP3 SWAP2 SWAP1 PUSH1 0x48 JUMP JUMPDEST POP CALLVALUE DUP1 ISZERO PUSH1 0x43 JUMPI PUSH0 PUSH0 REVERT JUMPDEST POP PUSH1 0xAC JUMP JUMPDEST DUP3 DUP1 SLOAD DUP3 DUP3 SSTORE SWAP1 PUSH0 MSTORE PUSH1 0x20 PUSH0 KECCAK256 SWAP1 DUP2 ADD SWAP3 DUP3 ISZERO PUSH1 0x84 JUMPI SWAP2 PUSH1 0x20 MUL DUP3 ADD JUMPDEST DUP3 DUP2 GT ISZERO PUSH1 0x83 JUMPI DUP3 MLOAD DUP3 SWAP1 PUSH1 0xFF AND SWAP1 SSTORE SWAP2 PUSH1 0x20 ADD SWAP2 SWAP1 PUSH1 0x1 ADD SWAP1 PUSH1 0x65 JUMP JUMPDEST JUMPDEST POP SWAP1 POP PUSH1 0x8F SWAP2 SWAP1 PUSH1 0x93 JUMP JUMPDEST POP SWAP1 JUMP JUMPDEST JUMPDEST DUP1 DUP3 GT ISZERO PUSH1 0xA8 JUMPI PUSH0 DUP2 PUSH0 SWAP1 SSTORE POP PUSH1 0x1 ADD PUSH1 0x94 JUMP JUMPDEST POP SWAP1 JUMP JUMPDEST PUSH2 0x5EA DUP1 PUSH2 0xB9 PUSH0 CODECOPY PUSH0 RETURN INVALID PUSH1 0x80 PUSH1 0x40 MSTORE PUSH1 0x4 CALLDATASIZE LT PUSH2 0x54 JUMPI PUSH0 CALLDATALOAD PUSH1 0xE0 SHR DUP1 PUSH4 0x5B97DB6 EQ PUSH2 0x58 JUMPI DUP1 PUSH4 0x2B723B7F EQ PUSH2 0x85 JUMPI DUP1 PUSH4 0x3F4263EF EQ PUSH2 0x9B JUMPI DUP1 PUSH4 0xA05F9906 EQ PUSH2 0xD7 JUMPI DUP1 PUSH4 0xA43D423F EQ PUSH2 0x103 JUMPI DUP1 PUSH4 0xE1640D85 EQ PUSH2 0x12F JUMPI JUMPDEST PUSH0 PUSH0 REVERT JUMPDEST CALLVALUE DUP1 ISZERO PUSH2 0x63 JUMPI PUSH0 PUSH0 REVERT JUMPDEST POP PUSH2 0x6C PUSH2 0x14F JUMP JUMPDEST PUSH1 0x40 MLOAD PUSH2 0x7C SWAP5 SWAP4 SWAP3 SWAP2 SWAP1 PUSH2 0x308 JUMP JUMPDEST PUSH1 0x40 MLOAD DUP1 SWAP2 SUB SWAP1 RETURN JUMPDEST CALLVALUE DUP1 ISZERO PUSH2 0x90 JUMPI PUSH0 PUSH0 REVERT JUMPDEST POP PUSH2 0x99 PUSH2 0x186 JUMP JUMPDEST STOP JUMPDEST CALLVALUE DUP1 ISZERO PUSH2 0xA6 JUMPI PUSH0 PUSH0 REVERT JUMPDEST POP PUSH2 0xC1 PUSH1 0x4 DUP1 CALLDATASIZE SUB DUP2 ADD SWAP1 PUSH2 0xBC SWAP2 SWAP1 PUSH2 0x379 JUMP JUMPDEST PUSH2 0x1AF JUMP JUMPDEST PUSH1 0x40 MLOAD PUSH2 0xCE SWAP2 SWAP1 PUSH2 0x3A4 JUMP JUMPDEST PUSH1 0x40 MLOAD DUP1 SWAP2 SUB SWAP1 RETURN JUMPDEST CALLVALUE DUP1 ISZERO PUSH2 0xE2 JUMPI PUSH0 PUSH0 REVERT JUMPDEST POP PUSH2 0xEB PUSH2 0x1CE JUMP JUMPDEST PUSH1 0x40 MLOAD PUSH2 0xFA SWAP4 SWAP3 SWAP2 SWAP1 PUSH2 0x42D JUMP JUMPDEST PUSH1 0x40 MLOAD DUP1 SWAP2 SUB SWAP1 RETURN JUMPDEST CALLVALUE DUP1 ISZERO PUSH2 0x10E JUMPI PUSH0 PUSH0 REVERT JUMPDEST POP PUSH2 0x117 PUSH2 0x232 JUMP JUMPDEST PUSH1 0x40 MLOAD PUSH2 0x126 SWAP4 SWAP3 SWAP2 SWAP1 PUSH2 0x483 JUMP JUMPDEST PUSH1 0x40 MLOAD DUP1 SWAP2 SUB SWAP1 RETURN JUMPDEST PUSH2 0x137 PUSH2 0x256 JUMP JUMPDEST PUSH1 0x40 MLOAD PUSH2 0x146 SWAP4 SWAP3 SWAP2 SWAP1 PUSH2 0x4F2 JUMP JUMPDEST PUSH1 0x40 MLOAD DUP1 SWAP2 SUB SWAP1 RETURN JUMPDEST PUSH0 PUSH0 PUSH0 PUSH0 PUSH0 PUSH1 0x1 NUMBER PUSH2 0x161 SWAP2 SWAP1 PUSH2 0x554 JUMP JUMPDEST BLOCKHASH SWAP1 POP PUSH0 COINBASE SWAP1 POP PUSH0 GASLIMIT SWAP1 POP PUSH0 TIMESTAMP SWAP1 POP DUP4 DUP4 DUP4 DUP4 SWAP8 POP SWAP8 POP SWAP8 POP SWAP8 POP POP POP POP POP SWAP1 SWAP2 SWAP3 SWAP4 JUMP JUMPDEST PUSH0 PUSH0 SWAP1 POP PUSH1 0xFA DUP2 PUSH1 0x1 DUP2 SLOAD DUP2 LT PUSH2 0x1A0 JUMPI PUSH2 0x19F PUSH2 0x587 JUMP JUMPDEST JUMPDEST SWAP1 PUSH0 MSTORE PUSH1 0x20 PUSH0 KECCAK256 ADD DUP2 SWAP1 SSTORE POP POP JUMP JUMPDEST PUSH0 DUP2 DUP2 SLOAD DUP2 LT PUSH2 0x1BD JUMPI PUSH0 DUP1 REVERT JUMPDEST SWAP1 PUSH0 MSTORE PUSH1 0x20 PUSH0 KECCAK256 ADD PUSH0 SWAP2 POP SWAP1 POP SLOAD DUP2 JUMP JUMPDEST PUSH0 PUSH0 PUSH1 0x60 PUSH0 CALLER SWAP1 POP PUSH0 NUMBER SWAP1 POP PUSH0 PUSH0 CALLDATASIZE DUP1 DUP1 PUSH1 0x1F ADD PUSH1 0x20 DUP1 SWAP2 DIV MUL PUSH1 0x20 ADD PUSH1 0x40 MLOAD SWAP1 DUP2 ADD PUSH1 0x40 MSTORE DUP1 SWAP4 SWAP3 SWAP2 SWAP1 DUP2 DUP2 MSTORE PUSH1 0x20 ADD DUP4 DUP4 DUP1 DUP3 DUP5 CALLDATACOPY PUSH0 DUP2 DUP5 ADD MSTORE PUSH1 0x1F NOT PUSH1 0x1F DUP3 ADD AND SWAP1 POP DUP1 DUP4 ADD SWAP3 POP POP POP POP POP POP POP SWAP1 POP DUP3 DUP3 DUP3 SWAP6 POP SWAP6 POP SWAP6 POP POP POP POP SWAP1 SWAP2 SWAP3 JUMP JUMPDEST PUSH0 PUSH0 PUSH0 PUSH8 0xDE0B6B3A7640000 DUP1 EQ PUSH4 0x3B9ACA00 DUP1 EQ PUSH1 0x1 DUP1 EQ SWAP3 POP SWAP3 POP SWAP3 POP SWAP1 SWAP2 SWAP3 JUMP JUMPDEST PUSH0 PUSH0 PUSH0 PUSH0 GAS SWAP1 POP PUSH0 PUSH0 CALLDATALOAD PUSH32 0xFFFFFFFF00000000000000000000000000000000000000000000000000000000 AND SWAP1 POP PUSH0 CALLVALUE SWAP1 POP DUP3 DUP3 DUP3 SWAP6 POP SWAP6 POP SWAP6 POP POP POP POP SWAP1 SWAP2 SWAP3 JUMP JUMPDEST PUSH0 DUP2 SWAP1 POP SWAP2 SWAP1 POP JUMP JUMPDEST PUSH2 0x2AB DUP2 PUSH2 0x299 JUMP JUMPDEST DUP3 MSTORE POP POP JUMP JUMPDEST PUSH0 PUSH20 0xFFFFFFFFFFFFFFFFFFFFFFFFFFFFFFFFFFFFFFFF DUP3 AND SWAP1 POP SWAP2 SWAP1 POP JUMP JUMPDEST PUSH0 PUSH2 0x2DA DUP3 PUSH2 0x2B1 JUMP JUMPDEST SWAP1 POP SWAP2 SWAP1 POP JUMP JUMPDEST PUSH2 0x2EA DUP2 PUSH2 0x2D0 JUMP JUMPDEST DUP3 MSTORE POP POP JUMP JUMPDEST PUSH0 DUP2 SWAP1 POP SWAP2 SWAP1 POP JUMP JUMPDEST PUSH2 0x302 DUP2 PUSH2 0x2F0 JUMP JUMPDEST DUP3 MSTORE POP POP JUMP JUMPDEST PUSH0 PUSH1 0x80 DUP3 ADD SWAP1 POP PUSH2 0x31B PUSH0 DUP4 ADD DUP8 PUSH2 0x2A2 JUMP JUMPDEST PUSH2 0x328 PUSH1 0x20 DUP4 ADD DUP7 PUSH2 0x2E1 JUMP JUMPDEST PUSH2 0x335 PUSH1 0x40 DUP4 ADD DUP6 PUSH2 0x2F9 JUMP JUMPDEST PUSH2 0x342 PUSH1 0x60 DUP4 ADD DUP5 PUSH2 0x2F9 JUMP JUMPDEST SWAP6 SWAP5 POP POP POP POP POP JUMP JUMPDEST PUSH0 PUSH0 REVERT JUMPDEST PUSH2 0x358 DUP2 PUSH2 0x2F0 JUMP JUMPDEST DUP2 EQ PUSH2 0x362 JUMPI PUSH0 PUSH0 REVERT JUMPDEST POP JUMP JUMPDEST PUSH0 DUP2 CALLDATALOAD SWAP1 POP PUSH2 0x373 DUP2 PUSH2 0x34F JUMP JUMPDEST SWAP3 SWAP2 POP POP JUMP JUMPDEST PUSH0 PUSH1 0x20 DUP3 DUP5 SUB SLT ISZERO PUSH2 0x38E JUMPI PUSH2 0x38D PUSH2 0x34B JUMP JUMPDEST JUMPDEST PUSH0 PUSH2 0x39B DUP5 DUP3 DUP6 ADD PUSH2 0x365 JUMP JUMPDEST SWAP2 POP POP SWAP3 SWAP2 POP POP JUMP JUMPDEST PUSH0 PUSH1 0x20 DUP3 ADD SWAP1 POP PUSH2 0x3B7 PUSH0 DUP4 ADD DUP5 PUSH2 0x2F9 JUMP JUMPDEST SWAP3 SWAP2 POP POP JUMP JUMPDEST PUSH0 DUP2 MLOAD SWAP1 POP SWAP2 SWAP1 POP JUMP JUMPDEST PUSH0 DUP3 DUP3 MSTORE PUSH1 0x20 DUP3 ADD SWAP1 POP SWAP3 SWAP2 POP POP JUMP JUMPDEST DUP3 DUP2 DUP4 MCOPY PUSH0 DUP4 DUP4 ADD MSTORE POP POP POP JUMP JUMPDEST PUSH0 PUSH1 0x1F NOT PUSH1 0x1F DUP4 ADD AND SWAP1 POP SWAP2 SWAP1 POP JUMP JUMPDEST PUSH0 PUSH2 0x3FF DUP3 PUSH2 0x3BD JUMP JUMPDEST PUSH2 0x409 DUP2 DUP6 PUSH2 0x3C7 JUMP JUMPDEST SWAP4 POP PUSH2 0x419 DUP2 DUP6 PUSH1 0x20 DUP7 ADD PUSH2 0x3D7 JUMP JUMPDEST PUSH2 0x422 DUP2 PUSH2 0x3E5 JUMP JUMPDEST DUP5 ADD SWAP2 POP POP SWAP3 SWAP2 POP POP JUMP JUMPDEST PUSH0 PUSH1 0x60 DUP3 ADD SWAP1 POP PUSH2 0x440 PUSH0 DUP4 ADD DUP7 PUSH2 0x2E1 JUMP JUMPDEST PUSH2 0x44D PUSH1 0x20 DUP4 ADD DUP6 PUSH2 0x2F9 JUMP JUMPDEST DUP2 DUP2 SUB PUSH1 0x40 DUP4 ADD MSTORE PUSH2 0x45F DUP2 DUP5 PUSH2 0x3F5 JUMP JUMPDEST SWAP1 POP SWAP5 SWAP4 POP POP POP POP JUMP JUMPDEST PUSH0 DUP2 ISZERO ISZERO SWAP1 POP SWAP2 SWAP1 POP JUMP JUMPDEST PUSH2 0x47D DUP2 PUSH2 0x469 JUMP JUMPDEST DUP3 MSTORE POP POP JUMP JUMPDEST PUSH0 PUSH1 0x60 DUP3 ADD SWAP1 POP PUSH2 0x496 PUSH0 DUP4 ADD DUP7 PUSH2 0x474 JUMP JUMPDEST PUSH2 0x4A3 PUSH1 0x20 DUP4 ADD DUP6 PUSH2 0x474 JUMP JUMPDEST PUSH2 0x4B0 PUSH1 0x40 DUP4 ADD DUP5 PUSH2 0x474 JUMP JUMPDEST SWAP5 SWAP4 POP POP POP POP JUMP JUMPDEST PUSH0 PUSH32 0xFFFFFFFF00000000000000000000000000000000000000000000000000000000 DUP3 AND SWAP1 POP SWAP2 SWAP1 POP JUMP JUMPDEST PUSH2 0x4EC DUP2 PUSH2 0x4B8 JUMP JUMPDEST DUP3 MSTORE POP POP JUMP JUMPDEST PUSH0 PUSH1 0x60 DUP3 ADD SWAP1 POP PUSH2 0x505 PUSH0 DUP4 ADD DUP7 PUSH2 0x2F9 JUMP JUMPDEST PUSH2 0x512 PUSH1 0x20 DUP4 ADD DUP6 PUSH2 0x4E3 JUMP JUMPDEST PUSH2 0x51F PUSH1 0x40 DUP4 ADD DUP5 PUSH2 0x2F9 JUMP JUMPDEST SWAP5 SWAP4 POP POP POP POP JUMP JUMPDEST PUSH32 0x4E487B7100000000000000000000000000000000000000000000000000000000 PUSH0 MSTORE PUSH1 0x11 PUSH1 0x4 MSTORE PUSH1 0x24 PUSH0 REVERT JUMPDEST PUSH0 PUSH2 0x55E DUP3 PUSH2 0x2F0 JUMP JUMPDEST SWAP2 POP PUSH2 0x569 DUP4 PUSH2 0x2F0 JUMP JUMPDEST SWAP3 POP DUP3 DUP3 SUB SWAP1 POP DUP2 DUP2 GT ISZERO PUSH2 0x581 JUMPI PUSH2 0x580 PUSH2 0x527 JUMP JUMPDEST JUMPDEST SWAP3 SWAP2 POP POP JUMP JUMPDEST PUSH32 0x4E487B7100000000000000000000000000000000000000000000000000000000 PUSH0 MSTORE PUSH1 0x32 PUSH1 0x4 MSTORE PUSH1 0x24 PUSH0 REVERT INVALID LOG2 PUSH5 0x6970667358 0x22 SLT KECCAK256 RETURNDATACOPY 0xEB 0xC1 0x4E DUP10 BLOBBASEFEE SHL BLOBHASH 0xEB PUSH29 0x1EB61924C0A38827BB2553CEBBF4B239410FC3D11D3364736F6C634300 ADDMOD 0x1E STOP CALLER "
				},
				"gasEstimates": {
					"creation": {
						"codeDepositCost": "302800",
						"executionCost": "infinite",
						"totalCost": "infinite"
					},
					"external": {
						"UnitAndTime()": "infinite",
						"changeArray()": "24446",
						"global()": "infinite",
						"global2()": "infinite",
						"global3()": "infinite",
						"x(uint256)": "infinite"
					}
				},
				"methodIdentifiers": {
					"UnitAndTime()": "a43d423f",
					"changeArray()": "2b723b7f",
					"global()": "a05f9906",
					"global2()": "05b97db6",
					"global3()": "e1640d85",
					"x(uint256)": "3f4263ef"
				}
			},
			"storageLayout": {
				"storage": [
					{
						"astId": 8,
						"contract": "Solidity_Fundation/grammar_1/Ref_Type.sol:Reference",
						"label": "x",
						"offset": 0,
						"slot": "0",
						"type": "t_array(t_uint256)dyn_storage"
					}
				],
				"types": {
					"t_array(t_uint256)dyn_storage": {
						"base": "t_uint256",
						"encoding": "dynamic_array",
						"label": "uint256[]",
						"numberOfBytes": "32"
					},
					"t_uint256": {
						"encoding": "inplace",
						"label": "uint256",
						"numberOfBytes": "32"
					}
				}
			},
			"userdoc": {
				"kind": "user",
				"methods": {},
				"version": 1
			}
		}
	}
}