{
	"Solidity_Fundation/day_1/Function.sol": {
		"my_Function": {
			"abi": [
				{
					"inputs": [],
					"name": "getMinus",
					"outputs": [
						{
							"internalType": "uint256",
							"name": "a",
							"type": "uint256"
						}
					],
					"stateMutability": "view",
					"type": "function"
				},
				{
					"inputs": [],
					"name": "num",
					"outputs": [
						{
							"internalType": "uint256",
							"name": "",
							"type": "uint256"
						}
					],
					"stateMutability": "view",
					"type": "function"
				},
				{
					"inputs": [],
					"name": "paySth",
					"outputs": [
						{
							"internalType": "uint256",
							"name": "balance",
							"type": "uint256"
						}
					],
					"stateMutability": "payable",
					"type": "function"
				}
			],
			"devdoc": {
				"kind": "dev",
				"methods": {},
				"version": 1
			},
			"evm": {
				"assembly": "    /* \"Solidity_Fundation/day_1/Function.sol\":62:535  contract my_Function {... */\n  mstore(0x40, 0x80)\n    /* \"Solidity_Fundation/day_1/Function.sol\":107:108  1 */\n  0x01\n    /* \"Solidity_Fundation/day_1/Function.sol\":88:108  uint public  num = 1 */\n  0x00\n  sstore\n    /* \"Solidity_Fundation/day_1/Function.sol\":62:535  contract my_Function {... */\n  callvalue\n  dup1\n  iszero\n  tag_1\n  jumpi\n  revert(0x00, 0x00)\ntag_1:\n  pop\n  dataSize(sub_0)\n  dup1\n  dataOffset(sub_0)\n  0x00\n  codecopy\n  0x00\n  return\nstop\n\nsub_0: assembly {\n        /* \"Solidity_Fundation/day_1/Function.sol\":62:535  contract my_Function {... */\n      mstore(0x40, 0x80)\n      jumpi(tag_1, lt(calldatasize, 0x04))\n      shr(0xe0, calldataload(0x00))\n      dup1\n      0x4e70b1dc\n      eq\n      tag_2\n      jumpi\n      dup1\n      0xbd7f1cba\n      eq\n      tag_3\n      jumpi\n      dup1\n      0xda0129b2\n      eq\n      tag_4\n      jumpi\n    tag_1:\n      revert(0x00, 0x00)\n        /* \"Solidity_Fundation/day_1/Function.sol\":88:108  uint public  num = 1 */\n    tag_2:\n      callvalue\n      dup1\n      iszero\n      tag_5\n      jumpi\n      revert(0x00, 0x00)\n    tag_5:\n      pop\n      tag_6\n      tag_7\n      jump\t// in\n    tag_6:\n      mload(0x40)\n      tag_8\n      swap2\n      swap1\n      tag_9\n      jump\t// in\n    tag_8:\n      mload(0x40)\n      dup1\n      swap2\n      sub\n      swap1\n      return\n        /* \"Solidity_Fundation/day_1/Function.sol\":347:424  function getMinus () external view returns(uint a) {... */\n    tag_3:\n      callvalue\n      dup1\n      iszero\n      tag_10\n      jumpi\n      revert(0x00, 0x00)\n    tag_10:\n      pop\n      tag_11\n      tag_12\n      jump\t// in\n    tag_11:\n      mload(0x40)\n      tag_13\n      swap2\n      swap1\n      tag_9\n      jump\t// in\n    tag_13:\n      mload(0x40)\n      dup1\n      swap2\n      sub\n      swap1\n      return\n        /* \"Solidity_Fundation/day_1/Function.sol\":428:528  function paySth () external payable returns(uint balance){... */\n    tag_4:\n      tag_14\n      tag_15\n      jump\t// in\n    tag_14:\n      mload(0x40)\n      tag_16\n      swap2\n      swap1\n      tag_9\n      jump\t// in\n    tag_16:\n      mload(0x40)\n      dup1\n      swap2\n      sub\n      swap1\n      return\n        /* \"Solidity_Fundation/day_1/Function.sol\":88:108  uint public  num = 1 */\n    tag_7:\n      sload(0x00)\n      dup2\n      jump\t// out\n        /* \"Solidity_Fundation/day_1/Function.sol\":347:424  function getMinus () external view returns(uint a) {... */\n    tag_12:\n        /* \"Solidity_Fundation/day_1/Function.sol\":390:396  uint a */\n      0x00\n        /* \"Solidity_Fundation/day_1/Function.sol\":409:417  minus(1) */\n      tag_18\n        /* \"Solidity_Fundation/day_1/Function.sol\":415:416  1 */\n      0x01\n        /* \"Solidity_Fundation/day_1/Function.sol\":409:414  minus */\n      tag_19\n        /* \"Solidity_Fundation/day_1/Function.sol\":409:417  minus(1) */\n      jump\t// in\n    tag_18:\n        /* \"Solidity_Fundation/day_1/Function.sol\":405:417  a = minus(1) */\n      swap1\n      pop\n        /* \"Solidity_Fundation/day_1/Function.sol\":347:424  function getMinus () external view returns(uint a) {... */\n      swap1\n      jump\t// out\n        /* \"Solidity_Fundation/day_1/Function.sol\":428:528  function paySth () external payable returns(uint balance){... */\n    tag_15:\n        /* \"Solidity_Fundation/day_1/Function.sol\":472:484  uint balance */\n      0x00\n        /* \"Solidity_Fundation/day_1/Function.sol\":501:522  address(this).balance */\n      selfbalance\n        /* \"Solidity_Fundation/day_1/Function.sol\":493:522  return  address(this).balance */\n      swap1\n      pop\n        /* \"Solidity_Fundation/day_1/Function.sol\":428:528  function paySth () external payable returns(uint balance){... */\n      swap1\n      jump\t// out\n        /* \"Solidity_Fundation/day_1/Function.sol\":252:343  function minus(uint n) internal view returns(uint result){       ... */\n    tag_19:\n        /* \"Solidity_Fundation/day_1/Function.sol\":297:308  uint result */\n      0x00\n        /* \"Solidity_Fundation/day_1/Function.sol\":338:339  n */\n      dup2\n        /* \"Solidity_Fundation/day_1/Function.sol\":332:335  num */\n      sload(0x00)\n        /* \"Solidity_Fundation/day_1/Function.sol\":332:339  num - n */\n      tag_22\n      swap2\n      swap1\n      tag_23\n      jump\t// in\n    tag_22:\n        /* \"Solidity_Fundation/day_1/Function.sol\":323:339  result = num - n */\n      swap1\n      pop\n        /* \"Solidity_Fundation/day_1/Function.sol\":252:343  function minus(uint n) internal view returns(uint result){       ... */\n      swap2\n      swap1\n      pop\n      jump\t// out\n        /* \"#utility.yul\":7:84   */\n    tag_24:\n        /* \"#utility.yul\":44:51   */\n      0x00\n        /* \"#utility.yul\":73:78   */\n      dup2\n        /* \"#utility.yul\":62:78   */\n      swap1\n      pop\n        /* \"#utility.yul\":7:84   */\n      swap2\n      swap1\n      pop\n      jump\t// out\n        /* \"#utility.yul\":90:208   */\n    tag_25:\n        /* \"#utility.yul\":177:201   */\n      tag_30\n        /* \"#utility.yul\":195:200   */\n      dup2\n        /* \"#utility.yul\":177:201   */\n      tag_24\n      jump\t// in\n    tag_30:\n        /* \"#utility.yul\":172:175   */\n      dup3\n        /* \"#utility.yul\":165:202   */\n      mstore\n        /* \"#utility.yul\":90:208   */\n      pop\n      pop\n      jump\t// out\n        /* \"#utility.yul\":214:436   */\n    tag_9:\n        /* \"#utility.yul\":307:311   */\n      0x00\n        /* \"#utility.yul\":345:347   */\n      0x20\n        /* \"#utility.yul\":334:343   */\n      dup3\n        /* \"#utility.yul\":330:348   */\n      add\n        /* \"#utility.yul\":322:348   */\n      swap1\n      pop\n        /* \"#utility.yul\":358:429   */\n      tag_32\n        /* \"#utility.yul\":426:427   */\n      0x00\n        /* \"#utility.yul\":415:424   */\n      dup4\n        /* \"#utility.yul\":411:428   */\n      add\n        /* \"#utility.yul\":402:408   */\n      dup5\n        /* \"#utility.yul\":358:429   */\n      tag_25\n      jump\t// in\n    tag_32:\n        /* \"#utility.yul\":214:436   */\n      swap3\n      swap2\n      pop\n      pop\n      jump\t// out\n        /* \"#utility.yul\":442:622   */\n    tag_26:\n        /* \"#utility.yul\":490:567   */\n      0x4e487b7100000000000000000000000000000000000000000000000000000000\n        /* \"#utility.yul\":487:488   */\n      0x00\n        /* \"#utility.yul\":480:568   */\n      mstore\n        /* \"#utility.yul\":587:591   */\n      0x11\n        /* \"#utility.yul\":584:585   */\n      0x04\n        /* \"#utility.yul\":577:592   */\n      mstore\n        /* \"#utility.yul\":611:615   */\n      0x24\n        /* \"#utility.yul\":608:609   */\n      0x00\n        /* \"#utility.yul\":601:616   */\n      revert\n        /* \"#utility.yul\":628:822   */\n    tag_23:\n        /* \"#utility.yul\":668:672   */\n      0x00\n        /* \"#utility.yul\":688:708   */\n      tag_35\n        /* \"#utility.yul\":706:707   */\n      dup3\n        /* \"#utility.yul\":688:708   */\n      tag_24\n      jump\t// in\n    tag_35:\n        /* \"#utility.yul\":683:708   */\n      swap2\n      pop\n        /* \"#utility.yul\":722:742   */\n      tag_36\n        /* \"#utility.yul\":740:741   */\n      dup4\n        /* \"#utility.yul\":722:742   */\n      tag_24\n      jump\t// in\n    tag_36:\n        /* \"#utility.yul\":717:742   */\n      swap3\n      pop\n        /* \"#utility.yul\":766:767   */\n      dup3\n        /* \"#utility.yul\":763:764   */\n      dup3\n        /* \"#utility.yul\":759:768   */\n      sub\n        /* \"#utility.yul\":751:768   */\n      swap1\n      pop\n        /* \"#utility.yul\":790:791   */\n      dup2\n        /* \"#utility.yul\":784:788   */\n      dup2\n        /* \"#utility.yul\":781:792   */\n      gt\n        /* \"#utility.yul\":778:815   */\n      iszero\n      tag_37\n      jumpi\n        /* \"#utility.yul\":795:813   */\n      tag_38\n      tag_26\n      jump\t// in\n    tag_38:\n        /* \"#utility.yul\":778:815   */\n    tag_37:\n        /* \"#utility.yul\":628:822   */\n      swap3\n      swap2\n      pop\n      pop\n      jump\t// out\n\n    auxdata: 0xa2646970667358221220777fd17531512369ad0b47c1e1f1253f172387355a64f6d1d2d999559056e31c64736f6c634300081e0033\n}\n",
				"bytecode": {
					"linkReferences": {},
					"object": "608060405260015f553480156012575f5ffd5b506101a1806100205f395ff3fe608060405260043610610033575f3560e01c80634e70b1dc14610037578063bd7f1cba14610061578063da0129b21461008b575b5f5ffd5b348015610042575f5ffd5b5061004b6100a9565b60405161005891906100f2565b60405180910390f35b34801561006c575f5ffd5b506100756100ae565b60405161008291906100f2565b60405180910390f35b6100936100be565b6040516100a091906100f2565b60405180910390f35b5f5481565b5f6100b960016100c5565b905090565b5f47905090565b5f815f546100d39190610138565b9050919050565b5f819050919050565b6100ec816100da565b82525050565b5f6020820190506101055f8301846100e3565b92915050565b7f4e487b71000000000000000000000000000000000000000000000000000000005f52601160045260245ffd5b5f610142826100da565b915061014d836100da565b92508282039050818111156101655761016461010b565b5b9291505056fea2646970667358221220777fd17531512369ad0b47c1e1f1253f172387355a64f6d1d2d999559056e31c64736f6c634300081e0033",
					"opcodes": "PUSH1 0x80 PUSH1 0x40 MSTORE PUSH1 0x1 PUSH0 SSTORE CALLVALUE DUP1 ISZERO PUSH1 0x12 JUMPI PUSH0 PUSH0 REVERT JUMPDEST POP PUSH2 0x1A1 DUP1 PUSH2 0x20 PUSH0 CODECOPY PUSH0 RETURN INVALID PUSH1 0x80 PUSH1 0x40 MSTORE PUSH1 0x4 CALLDATASIZE LT PUSH2 0x33 JUMPI PUSH0 CALLDATALOAD PUSH1 0xE0 SHR DUP1 PUSH4 0x4E70B1DC EQ PUSH2 0x37 JUMPI DUP1 PUSH4 0xBD7F1CBA EQ PUSH2 0x61 JUMPI DUP1 PUSH4 0xDA0129B2 EQ PUSH2 0x8B JUMPI JUMPDEST PUSH0 PUSH0 REVERT JUMPDEST CALLVALUE DUP1 ISZERO PUSH2 0x42 JUMPI PUSH0 PUSH0 REVERT JUMPDEST POP PUSH2 0x4B PUSH2 0xA9 JUMP JUMPDEST PUSH1 0x40 MLOAD PUSH2 0x58 SWAP2 SWAP1 PUSH2 0xF2 JUMP JUMPDEST PUSH1 0x40 MLOAD DUP1 SWAP2 SUB SWAP1 RETURN JUMPDEST CALLVALUE DUP1 ISZERO PUSH2 0x6C JUMPI PUSH0 PUSH0 REVERT JUMPDEST POP PUSH2 0x75 PUSH2 0xAE JUMP JUMPDEST PUSH1 0x40 MLOAD PUSH2 0x82 SWAP2 SWAP1 PUSH2 0xF2 JUMP JUMPDEST PUSH1 0x40 MLOAD DUP1 SWAP2 SUB SWAP1 RETURN JUMPDEST PUSH2 0x93 PUSH2 0xBE JUMP JUMPDEST PUSH1 0x40 MLOAD PUSH2 0xA0 SWAP2 SWAP1 PUSH2 0xF2 JUMP JUMPDEST PUSH1 0x40 MLOAD DUP1 SWAP2 SUB SWAP1 RETURN JUMPDEST PUSH0 SLOAD DUP2 JUMP JUMPDEST PUSH0 PUSH2 0xB9 PUSH1 0x1 PUSH2 0xC5 JUMP JUMPDEST SWAP1 POP SWAP1 JUMP JUMPDEST PUSH0 SELFBALANCE SWAP1 POP SWAP1 JUMP JUMPDEST PUSH0 DUP2 PUSH0 SLOAD PUSH2 0xD3 SWAP2 SWAP1 PUSH2 0x138 JUMP JUMPDEST SWAP1 POP SWAP2 SWAP1 POP JUMP JUMPDEST PUSH0 DUP2 SWAP1 POP SWAP2 SWAP1 POP JUMP JUMPDEST PUSH2 0xEC DUP2 PUSH2 0xDA JUMP JUMPDEST DUP3 MSTORE POP POP JUMP JUMPDEST PUSH0 PUSH1 0x20 DUP3 ADD SWAP1 POP PUSH2 0x105 PUSH0 DUP4 ADD DUP5 PUSH2 0xE3 JUMP JUMPDEST SWAP3 SWAP2 POP POP JUMP JUMPDEST PUSH32 0x4E487B7100000000000000000000000000000000000000000000000000000000 PUSH0 MSTORE PUSH1 0x11 PUSH1 0x4 MSTORE PUSH1 0x24 PUSH0 REVERT JUMPDEST PUSH0 PUSH2 0x142 DUP3 PUSH2 0xDA JUMP JUMPDEST SWAP2 POP PUSH2 0x14D DUP4 PUSH2 0xDA JUMP JUMPDEST SWAP3 POP DUP3 DUP3 SUB SWAP1 POP DUP2 DUP2 GT ISZERO PUSH2 0x165 JUMPI PUSH2 0x164 PUSH2 0x10B JUMP JUMPDEST JUMPDEST SWAP3 SWAP2 POP POP JUMP INVALID LOG2 PUSH5 0x6970667358 0x22 SLT KECCAK256 PUSH24 0x7FD17531512369AD0B47C1E1F1253F172387355A64F6D1D2 0xD9 SWAP10 SSTORE SWAP1 JUMP CALLF 0x1C64 PUSH20 0x6F6C634300081E00330000000000000000000000 "
				},
				"gasEstimates": {
					"creation": {
						"codeDepositCost": "83400",
						"executionCost": "22238",
						"totalCost": "105638"
					},
					"external": {
						"getMinus()": "infinite",
						"num()": "2402",
						"paySth()": "332"
					},
					"internal": {
						"minus(uint256)": "infinite"
					}
				},
				"methodIdentifiers": {
					"getMinus()": "bd7f1cba",
					"num()": "4e70b1dc",
					"paySth()": "da0129b2"
				}
			},
			"storageLayout": {
				"storage": [
					{
						"astId": 4,
						"contract": "Solidity_Fundation/day_1/Function.sol:my_Function",
						"label": "num",
						"offset": 0,
						"slot": "0",
						"type": "t_uint256"
					}
				],
				"types": {
					"t_uint256": {
						"encoding": "inplace",
						"label": "uint256",
						"numberOfBytes": "32"
					}
				}
			},
			"userdoc": {
				"kind": "user",
				"methods": {},
				"version": 1
			}
		}
	}
}