{
	"data": {
		"bytecode": {
			"linkReferences": {},
			"object": "60806040526040518060600160405280600160ff168152602001600260ff168152602001600360ff168152505f90600361003a92919061009f565b50604051806101000160405280600181526020016002815260200160038152602001600481526020016005815260200160068152602001600781526020016008815250600190600861008d9291906100ef565b50348015610099575f5ffd5b5061014a565b828054828255905f5260205f209081019282156100de579160200282015b828111156100dd578251829060ff169055916020019190600101906100bd565b5b5090506100eb919061012f565b5090565b826008810192821561011e579160200282015b8281111561011d578251825591602001919060010190610102565b5b50905061012b919061012f565b5090565b5b80821115610146575f815f905550600101610130565b5090565b610953806101575f395ff3fe608060405260043610610090575f3560e01c8063a05f990611610058578063a05f99061461017b578063a43d423f146101a7578063adca666e146101d3578063cbdef3f9146101e9578063e1640d851461022557610090565b806305b97db6146100945780632b723b7f146100c15780633f4263ef146100d75780634bae89cb146101135780639607b3621461014f575b5f5ffd5b34801561009f575f5ffd5b506100a8610245565b6040516100b894939291906105e2565b60405180910390f35b3480156100cc575f5ffd5b506100d561027c565b005b3480156100e2575f5ffd5b506100fd60048036038101906100f89190610653565b6102a5565b60405161010a919061067e565b60405180910390f35b34801561011e575f5ffd5b5061013960048036038101906101349190610653565b6102c4565b604051610146919061067e565b60405180910390f35b34801561015a575f5ffd5b506101636102dd565b60405161017293929190610697565b60405180910390f35b348015610186575f5ffd5b5061018f610423565b60405161019e9392919061073c565b60405180910390f35b3480156101b2575f5ffd5b506101bb610487565b6040516101ca93929190610792565b60405180910390f35b3480156101de575f5ffd5b506101e76104ab565b005b3480156101f4575f5ffd5b5061020f600480360381019061020a9190610653565b6104ad565b60405161021c919061067e565b60405180910390f35b61022d6104cd565b60405161023c93929190610801565b60405180910390f35b5f5f5f5f5f6001436102579190610863565b4090505f4190505f4590505f4290508383838397509750975097505050505090919293565b5f5f905060fa8160018154811061029657610295610896565b5b905f5260205f20018190555050565b5f81815481106102b3575f80fd5b905f5260205f20015f915090505481565b600181600881106102d3575f80fd5b015f915090505481565b5f5f5f5f600367ffffffffffffffff8111156102fc576102fb6108c3565b5b60405190808252806020026020018201604052801561032a5781602001602082028036833780820191505090505b5090506001600990600861033f929190610510565b50600a815f8151811061035557610354610896565b5b60200260200101818152505060096014908060018154018082558091505060019003905f5260205f20015f9091909190915055600960018160018154018082558091505003905f5260205f20505060098054806103b5576103b46108f0565b5b600190038181905f5260205f20015f905590555f6009805490509050815f815181106103e4576103e3610896565b5b60200260200101518160096001846103fc9190610863565b8154811061040d5761040c610896565b5b905f5260205f2001549450945094505050909192565b5f5f60605f3390505f4390505f5f368080601f0160208091040260200160405190810160405280939291908181526020018383808284375f81840152601f19601f820116905080830192505050505050509050828282955095509550505050909192565b5f5f5f670de0b6b3a76400008014633b9aca00801460018014925092509250909192565b565b600981815481106104bc575f80fd5b905f5260205f20015f915090505481565b5f5f5f5f5a90505f5f357fffffffff000000000000000000000000000000000000000000000000000000001690505f349050828282955095509550505050909192565b828054828255905f5260205f20908101928215610547579182015b8281111561054657825482559160010191906001019061052b565b5b5090506105549190610558565b5090565b5b8082111561056f575f815f905550600101610559565b5090565b5f819050919050565b61058581610573565b82525050565b5f73ffffffffffffffffffffffffffffffffffffffff82169050919050565b5f6105b48261058b565b9050919050565b6105c4816105aa565b82525050565b5f819050919050565b6105dc816105ca565b82525050565b5f6080820190506105f55f83018761057c565b61060260208301866105bb565b61060f60408301856105d3565b61061c60608301846105d3565b95945050505050565b5f5ffd5b610632816105ca565b811461063c575f5ffd5b50565b5f8135905061064d81610629565b92915050565b5f6020828403121561066857610667610625565b5b5f6106758482850161063f565b91505092915050565b5f6020820190506106915f8301846105d3565b92915050565b5f6060820190506106aa5f8301866105d3565b6106b760208301856105d3565b6106c460408301846105d3565b949350505050565b5f81519050919050565b5f82825260208201905092915050565b8281835e5f83830152505050565b5f601f19601f8301169050919050565b5f61070e826106cc565b61071881856106d6565b93506107288185602086016106e6565b610731816106f4565b840191505092915050565b5f60608201905061074f5f8301866105bb565b61075c60208301856105d3565b818103604083015261076e8184610704565b9050949350505050565b5f8115159050919050565b61078c81610778565b82525050565b5f6060820190506107a55f830186610783565b6107b26020830185610783565b6107bf6040830184610783565b949350505050565b5f7fffffffff0000000000000000000000000000000000000000000000000000000082169050919050565b6107fb816107c7565b82525050565b5f6060820190506108145f8301866105d3565b61082160208301856107f2565b61082e60408301846105d3565b949350505050565b7f4e487b71000000000000000000000000000000000000000000000000000000005f52601160045260245ffd5b5f61086d826105ca565b9150610878836105ca565b92508282039050818111156108905761088f610836565b5b92915050565b7f4e487b71000000000000000000000000000000000000000000000000000000005f52603260045260245ffd5b7f4e487b71000000000000000000000000000000000000000000000000000000005f52604160045260245ffd5b7f4e487b71000000000000000000000000000000000000000000000000000000005f52603160045260245ffdfea26469706673582212202986b8f5981c4cbabfbbd401763a08f889a060df4c822bcb021d3e775208406364736f6c634300081e0033",
			"opcodes": "PUSH1 0x80 PUSH1 0x40 MSTORE PUSH1 0x40 MLOAD DUP1 PUSH1 0x60 ADD PUSH1 0x40 MSTORE DUP1 PUSH1 0x1 PUSH1 0xFF AND DUP2 MSTORE PUSH1 0x20 ADD PUSH1 0x2 PUSH1 0xFF AND DUP2 MSTORE PUSH1 0x20 ADD PUSH1 0x3 PUSH1 0xFF AND DUP2 MSTORE POP PUSH0 SWAP1 PUSH1 0x3 PUSH2 0x3A SWAP3 SWAP2 SWAP1 PUSH2 0x9F JUMP JUMPDEST POP PUSH1 0x40 MLOAD DUP1 PUSH2 0x100 ADD PUSH1 0x40 MSTORE DUP1 PUSH1 0x1 DUP2 MSTORE PUSH1 0x20 ADD PUSH1 0x2 DUP2 MSTORE PUSH1 0x20 ADD PUSH1 0x3 DUP2 MSTORE PUSH1 0x20 ADD PUSH1 0x4 DUP2 MSTORE PUSH1 0x20 ADD PUSH1 0x5 DUP2 MSTORE PUSH1 0x20 ADD PUSH1 0x6 DUP2 MSTORE PUSH1 0x20 ADD PUSH1 0x7 DUP2 MSTORE PUSH1 0x20 ADD PUSH1 0x8 DUP2 MSTORE POP PUSH1 0x1 SWAP1 PUSH1 0x8 PUSH2 0x8D SWAP3 SWAP2 SWAP1 PUSH2 0xEF JUMP JUMPDEST POP CALLVALUE DUP1 ISZERO PUSH2 0x99 JUMPI PUSH0 PUSH0 REVERT JUMPDEST POP PUSH2 0x14A JUMP JUMPDEST DUP3 DUP1 SLOAD DUP3 DUP3 SSTORE SWAP1 PUSH0 MSTORE PUSH1 0x20 PUSH0 KECCAK256 SWAP1 DUP2 ADD SWAP3 DUP3 ISZERO PUSH2 0xDE JUMPI SWAP2 PUSH1 0x20 MUL DUP3 ADD JUMPDEST DUP3 DUP2 GT ISZERO PUSH2 0xDD JUMPI DUP3 MLOAD DUP3 SWAP1 PUSH1 0xFF AND SWAP1 SSTORE SWAP2 PUSH1 0x20 ADD SWAP2 SWAP1 PUSH1 0x1 ADD SWAP1 PUSH2 0xBD JUMP JUMPDEST JUMPDEST POP SWAP1 POP PUSH2 0xEB SWAP2 SWAP1 PUSH2 0x12F JUMP JUMPDEST POP SWAP1 JUMP JUMPDEST DUP3 PUSH1 0x8 DUP2 ADD SWAP3 DUP3 ISZERO PUSH2 0x11E JUMPI SWAP2 PUSH1 0x20 MUL DUP3 ADD JUMPDEST DUP3 DUP2 GT ISZERO PUSH2 0x11D JUMPI DUP3 MLOAD DUP3 SSTORE SWAP2 PUSH1 0x20 ADD SWAP2 SWAP1 PUSH1 0x1 ADD SWAP1 PUSH2 0x102 JUMP JUMPDEST JUMPDEST POP SWAP1 POP PUSH2 0x12B SWAP2 SWAP1 PUSH2 0x12F JUMP JUMPDEST POP SWAP1 JUMP JUMPDEST JUMPDEST DUP1 DUP3 GT ISZERO PUSH2 0x146 JUMPI PUSH0 DUP2 PUSH0 SWAP1 SSTORE POP PUSH1 0x1 ADD PUSH2 0x130 JUMP JUMPDEST POP SWAP1 JUMP JUMPDEST PUSH2 0x953 DUP1 PUSH2 0x157 PUSH0 CODECOPY PUSH0 RETURN INVALID PUSH1 0x80 PUSH1 0x40 MSTORE PUSH1 0x4 CALLDATASIZE LT PUSH2 0x90 JUMPI PUSH0 CALLDATALOAD PUSH1 0xE0 SHR DUP1 PUSH4 0xA05F9906 GT PUSH2 0x58 JUMPI DUP1 PUSH4 0xA05F9906 EQ PUSH2 0x17B JUMPI DUP1 PUSH4 0xA43D423F EQ PUSH2 0x1A7 JUMPI DUP1 PUSH4 0xADCA666E EQ PUSH2 0x1D3 JUMPI DUP1 PUSH4 0xCBDEF3F9 EQ PUSH2 0x1E9 JUMPI DUP1 PUSH4 0xE1640D85 EQ PUSH2 0x225 JUMPI PUSH2 0x90 JUMP JUMPDEST DUP1 PUSH4 0x5B97DB6 EQ PUSH2 0x94 JUMPI DUP1 PUSH4 0x2B723B7F EQ PUSH2 0xC1 JUMPI DUP1 PUSH4 0x3F4263EF EQ PUSH2 0xD7 JUMPI DUP1 PUSH4 0x4BAE89CB EQ PUSH2 0x113 JUMPI DUP1 PUSH4 0x9607B362 EQ PUSH2 0x14F JUMPI JUMPDEST PUSH0 PUSH0 REVERT JUMPDEST CALLVALUE DUP1 ISZERO PUSH2 0x9F JUMPI PUSH0 PUSH0 REVERT JUMPDEST POP PUSH2 0xA8 PUSH2 0x245 JUMP JUMPDEST PUSH1 0x40 MLOAD PUSH2 0xB8 SWAP5 SWAP4 SWAP3 SWAP2 SWAP1 PUSH2 0x5E2 JUMP JUMPDEST PUSH1 0x40 MLOAD DUP1 SWAP2 SUB SWAP1 RETURN JUMPDEST CALLVALUE DUP1 ISZERO PUSH2 0xCC JUMPI PUSH0 PUSH0 REVERT JUMPDEST POP PUSH2 0xD5 PUSH2 0x27C JUMP JUMPDEST STOP JUMPDEST CALLVALUE DUP1 ISZERO PUSH2 0xE2 JUMPI PUSH0 PUSH0 REVERT JUMPDEST POP PUSH2 0xFD PUSH1 0x4 DUP1 CALLDATASIZE SUB DUP2 ADD SWAP1 PUSH2 0xF8 SWAP2 SWAP1 PUSH2 0x653 JUMP JUMPDEST PUSH2 0x2A5 JUMP JUMPDEST PUSH1 0x40 MLOAD PUSH2 0x10A SWAP2 SWAP1 PUSH2 0x67E JUMP JUMPDEST PUSH1 0x40 MLOAD DUP1 SWAP2 SUB SWAP1 RETURN JUMPDEST CALLVALUE DUP1 ISZERO PUSH2 0x11E JUMPI PUSH0 PUSH0 REVERT JUMPDEST POP PUSH2 0x139 PUSH1 0x4 DUP1 CALLDATASIZE SUB DUP2 ADD SWAP1 PUSH2 0x134 SWAP2 SWAP1 PUSH2 0x653 JUMP JUMPDEST PUSH2 0x2C4 JUMP JUMPDEST PUSH1 0x40 MLOAD PUSH2 0x146 SWAP2 SWAP1 PUSH2 0x67E JUMP JUMPDEST PUSH1 0x40 MLOAD DUP1 SWAP2 SUB SWAP1 RETURN JUMPDEST CALLVALUE DUP1 ISZERO PUSH2 0x15A JUMPI PUSH0 PUSH0 REVERT JUMPDEST POP PUSH2 0x163 PUSH2 0x2DD JUMP JUMPDEST PUSH1 0x40 MLOAD PUSH2 0x172 SWAP4 SWAP3 SWAP2 SWAP1 PUSH2 0x697 JUMP JUMPDEST PUSH1 0x40 MLOAD DUP1 SWAP2 SUB SWAP1 RETURN JUMPDEST CALLVALUE DUP1 ISZERO PUSH2 0x186 JUMPI PUSH0 PUSH0 REVERT JUMPDEST POP PUSH2 0x18F PUSH2 0x423 JUMP JUMPDEST PUSH1 0x40 MLOAD PUSH2 0x19E SWAP4 SWAP3 SWAP2 SWAP1 PUSH2 0x73C JUMP JUMPDEST PUSH1 0x40 MLOAD DUP1 SWAP2 SUB SWAP1 RETURN JUMPDEST CALLVALUE DUP1 ISZERO PUSH2 0x1B2 JUMPI PUSH0 PUSH0 REVERT JUMPDEST POP PUSH2 0x1BB PUSH2 0x487 JUMP JUMPDEST PUSH1 0x40 MLOAD PUSH2 0x1CA SWAP4 SWAP3 SWAP2 SWAP1 PUSH2 0x792 JUMP JUMPDEST PUSH1 0x40 MLOAD DUP1 SWAP2 SUB SWAP1 RETURN JUMPDEST CALLVALUE DUP1 ISZERO PUSH2 0x1DE JUMPI PUSH0 PUSH0 REVERT JUMPDEST POP PUSH2 0x1E7 PUSH2 0x4AB JUMP JUMPDEST STOP JUMPDEST CALLVALUE DUP1 ISZERO PUSH2 0x1F4 JUMPI PUSH0 PUSH0 REVERT JUMPDEST POP PUSH2 0x20F PUSH1 0x4 DUP1 CALLDATASIZE SUB DUP2 ADD SWAP1 PUSH2 0x20A SWAP2 SWAP1 PUSH2 0x653 JUMP JUMPDEST PUSH2 0x4AD JUMP JUMPDEST PUSH1 0x40 MLOAD PUSH2 0x21C SWAP2 SWAP1 PUSH2 0x67E JUMP JUMPDEST PUSH1 0x40 MLOAD DUP1 SWAP2 SUB SWAP1 RETURN JUMPDEST PUSH2 0x22D PUSH2 0x4CD JUMP JUMPDEST PUSH1 0x40 MLOAD PUSH2 0x23C SWAP4 SWAP3 SWAP2 SWAP1 PUSH2 0x801 JUMP JUMPDEST PUSH1 0x40 MLOAD DUP1 SWAP2 SUB SWAP1 RETURN JUMPDEST PUSH0 PUSH0 PUSH0 PUSH0 PUSH0 PUSH1 0x1 NUMBER PUSH2 0x257 SWAP2 SWAP1 PUSH2 0x863 JUMP JUMPDEST BLOCKHASH SWAP1 POP PUSH0 COINBASE SWAP1 POP PUSH0 GASLIMIT SWAP1 POP PUSH0 TIMESTAMP SWAP1 POP DUP4 DUP4 DUP4 DUP4 SWAP8 POP SWAP8 POP SWAP8 POP SWAP8 POP POP POP POP POP SWAP1 SWAP2 SWAP3 SWAP4 JUMP JUMPDEST PUSH0 PUSH0 SWAP1 POP PUSH1 0xFA DUP2 PUSH1 0x1 DUP2 SLOAD DUP2 LT PUSH2 0x296 JUMPI PUSH2 0x295 PUSH2 0x896 JUMP JUMPDEST JUMPDEST SWAP1 PUSH0 MSTORE PUSH1 0x20 PUSH0 KECCAK256 ADD DUP2 SWAP1 SSTORE POP POP JUMP JUMPDEST PUSH0 DUP2 DUP2 SLOAD DUP2 LT PUSH2 0x2B3 JUMPI PUSH0 DUP1 REVERT JUMPDEST SWAP1 PUSH0 MSTORE PUSH1 0x20 PUSH0 KECCAK256 ADD PUSH0 SWAP2 POP SWAP1 POP SLOAD DUP2 JUMP JUMPDEST PUSH1 0x1 DUP2 PUSH1 0x8 DUP2 LT PUSH2 0x2D3 JUMPI PUSH0 DUP1 REVERT JUMPDEST ADD PUSH0 SWAP2 POP SWAP1 POP SLOAD DUP2 JUMP JUMPDEST PUSH0 PUSH0 PUSH0 PUSH0 PUSH1 0x3 PUSH8 0xFFFFFFFFFFFFFFFF DUP2 GT ISZERO PUSH2 0x2FC JUMPI PUSH2 0x2FB PUSH2 0x8C3 JUMP JUMPDEST JUMPDEST PUSH1 0x40 MLOAD SWAP1 DUP1 DUP3 MSTORE DUP1 PUSH1 0x20 MUL PUSH1 0x20 ADD DUP3 ADD PUSH1 0x40 MSTORE DUP1 ISZERO PUSH2 0x32A JUMPI DUP2 PUSH1 0x20 ADD PUSH1 0x20 DUP3 MUL DUP1 CALLDATASIZE DUP4 CALLDATACOPY DUP1 DUP3 ADD SWAP2 POP POP SWAP1 POP JUMPDEST POP SWAP1 POP PUSH1 0x1 PUSH1 0x9 SWAP1 PUSH1 0x8 PUSH2 0x33F SWAP3 SWAP2 SWAP1 PUSH2 0x510 JUMP JUMPDEST POP PUSH1 0xA DUP2 PUSH0 DUP2 MLOAD DUP2 LT PUSH2 0x355 JUMPI PUSH2 0x354 PUSH2 0x896 JUMP JUMPDEST JUMPDEST PUSH1 0x20 MUL PUSH1 0x20 ADD ADD DUP2 DUP2 MSTORE POP POP PUSH1 0x9 PUSH1 0x14 SWAP1 DUP1 PUSH1 0x1 DUP2 SLOAD ADD DUP1 DUP3 SSTORE DUP1 SWAP2 POP POP PUSH1 0x1 SWAP1 SUB SWAP1 PUSH0 MSTORE PUSH1 0x20 PUSH0 KECCAK256 ADD PUSH0 SWAP1 SWAP2 SWAP1 SWAP2 SWAP1 SWAP2 POP SSTORE PUSH1 0x9 PUSH1 0x1 DUP2 PUSH1 0x1 DUP2 SLOAD ADD DUP1 DUP3 SSTORE DUP1 SWAP2 POP POP SUB SWAP1 PUSH0 MSTORE PUSH1 0x20 PUSH0 KECCAK256 POP POP PUSH1 0x9 DUP1 SLOAD DUP1 PUSH2 0x3B5 JUMPI PUSH2 0x3B4 PUSH2 0x8F0 JUMP JUMPDEST JUMPDEST PUSH1 0x1 SWAP1 SUB DUP2 DUP2 SWAP1 PUSH0 MSTORE PUSH1 0x20 PUSH0 KECCAK256 ADD PUSH0 SWAP1 SSTORE SWAP1 SSTORE PUSH0 PUSH1 0x9 DUP1 SLOAD SWAP1 POP SWAP1 POP DUP2 PUSH0 DUP2 MLOAD DUP2 LT PUSH2 0x3E4 JUMPI PUSH2 0x3E3 PUSH2 0x896 JUMP JUMPDEST JUMPDEST PUSH1 0x20 MUL PUSH1 0x20 ADD ADD MLOAD DUP2 PUSH1 0x9 PUSH1 0x1 DUP5 PUSH2 0x3FC SWAP2 SWAP1 PUSH2 0x863 JUMP JUMPDEST DUP2 SLOAD DUP2 LT PUSH2 0x40D JUMPI PUSH2 0x40C PUSH2 0x896 JUMP JUMPDEST JUMPDEST SWAP1 PUSH0 MSTORE PUSH1 0x20 PUSH0 KECCAK256 ADD SLOAD SWAP5 POP SWAP5 POP SWAP5 POP POP POP SWAP1 SWAP2 SWAP3 JUMP JUMPDEST PUSH0 PUSH0 PUSH1 0x60 PUSH0 CALLER SWAP1 POP PUSH0 NUMBER SWAP1 POP PUSH0 PUSH0 CALLDATASIZE DUP1 DUP1 PUSH1 0x1F ADD PUSH1 0x20 DUP1 SWAP2 DIV MUL PUSH1 0x20 ADD PUSH1 0x40 MLOAD SWAP1 DUP2 ADD PUSH1 0x40 MSTORE DUP1 SWAP4 SWAP3 SWAP2 SWAP1 DUP2 DUP2 MSTORE PUSH1 0x20 ADD DUP4 DUP4 DUP1 DUP3 DUP5 CALLDATACOPY PUSH0 DUP2 DUP5 ADD MSTORE PUSH1 0x1F NOT PUSH1 0x1F DUP3 ADD AND SWAP1 POP DUP1 DUP4 ADD SWAP3 POP POP POP POP POP POP POP SWAP1 POP DUP3 DUP3 DUP3 SWAP6 POP SWAP6 POP SWAP6 POP POP POP POP SWAP1 SWAP2 SWAP3 JUMP JUMPDEST PUSH0 PUSH0 PUSH0 PUSH8 0xDE0B6B3A7640000 DUP1 EQ PUSH4 0x3B9ACA00 DUP1 EQ PUSH1 0x1 DUP1 EQ SWAP3 POP SWAP3 POP SWAP3 POP SWAP1 SWAP2 SWAP3 JUMP JUMPDEST JUMP JUMPDEST PUSH1 0x9 DUP2 DUP2 SLOAD DUP2 LT PUSH2 0x4BC JUMPI PUSH0 DUP1 REVERT JUMPDEST SWAP1 PUSH0 MSTORE PUSH1 0x20 PUSH0 KECCAK256 ADD PUSH0 SWAP2 POP SWAP1 POP SLOAD DUP2 JUMP JUMPDEST PUSH0 PUSH0 PUSH0 PUSH0 GAS SWAP1 POP PUSH0 PUSH0 CALLDATALOAD PUSH32 0xFFFFFFFF00000000000000000000000000000000000000000000000000000000 AND SWAP1 POP PUSH0 CALLVALUE SWAP1 POP DUP3 DUP3 DUP3 SWAP6 POP SWAP6 POP SWAP6 POP POP POP POP SWAP1 SWAP2 SWAP3 JUMP JUMPDEST DUP3 DUP1 SLOAD DUP3 DUP3 SSTORE SWAP1 PUSH0 MSTORE PUSH1 0x20 PUSH0 KECCAK256 SWAP1 DUP2 ADD SWAP3 DUP3 ISZERO PUSH2 0x547 JUMPI SWAP2 DUP3 ADD JUMPDEST DUP3 DUP2 GT ISZERO PUSH2 0x546 JUMPI DUP3 SLOAD DUP3 SSTORE SWAP2 PUSH1 0x1 ADD SWAP2 SWAP1 PUSH1 0x1 ADD SWAP1 PUSH2 0x52B JUMP JUMPDEST JUMPDEST POP SWAP1 POP PUSH2 0x554 SWAP2 SWAP1 PUSH2 0x558 JUMP JUMPDEST POP SWAP1 JUMP JUMPDEST JUMPDEST DUP1 DUP3 GT ISZERO PUSH2 0x56F JUMPI PUSH0 DUP2 PUSH0 SWAP1 SSTORE POP PUSH1 0x1 ADD PUSH2 0x559 JUMP JUMPDEST POP SWAP1 JUMP JUMPDEST PUSH0 DUP2 SWAP1 POP SWAP2 SWAP1 POP JUMP JUMPDEST PUSH2 0x585 DUP2 PUSH2 0x573 JUMP JUMPDEST DUP3 MSTORE POP POP JUMP JUMPDEST PUSH0 PUSH20 0xFFFFFFFFFFFFFFFFFFFFFFFFFFFFFFFFFFFFFFFF DUP3 AND SWAP1 POP SWAP2 SWAP1 POP JUMP JUMPDEST PUSH0 PUSH2 0x5B4 DUP3 PUSH2 0x58B JUMP JUMPDEST SWAP1 POP SWAP2 SWAP1 POP JUMP JUMPDEST PUSH2 0x5C4 DUP2 PUSH2 0x5AA JUMP JUMPDEST DUP3 MSTORE POP POP JUMP JUMPDEST PUSH0 DUP2 SWAP1 POP SWAP2 SWAP1 POP JUMP JUMPDEST PUSH2 0x5DC DUP2 PUSH2 0x5CA JUMP JUMPDEST DUP3 MSTORE POP POP JUMP JUMPDEST PUSH0 PUSH1 0x80 DUP3 ADD SWAP1 POP PUSH2 0x5F5 PUSH0 DUP4 ADD DUP8 PUSH2 0x57C JUMP JUMPDEST PUSH2 0x602 PUSH1 0x20 DUP4 ADD DUP7 PUSH2 0x5BB JUMP JUMPDEST PUSH2 0x60F PUSH1 0x40 DUP4 ADD DUP6 PUSH2 0x5D3 JUMP JUMPDEST PUSH2 0x61C PUSH1 0x60 DUP4 ADD DUP5 PUSH2 0x5D3 JUMP JUMPDEST SWAP6 SWAP5 POP POP POP POP POP JUMP JUMPDEST PUSH0 PUSH0 REVERT JUMPDEST PUSH2 0x632 DUP2 PUSH2 0x5CA JUMP JUMPDEST DUP2 EQ PUSH2 0x63C JUMPI PUSH0 PUSH0 REVERT JUMPDEST POP JUMP JUMPDEST PUSH0 DUP2 CALLDATALOAD SWAP1 POP PUSH2 0x64D DUP2 PUSH2 0x629 JUMP JUMPDEST SWAP3 SWAP2 POP POP JUMP JUMPDEST PUSH0 PUSH1 0x20 DUP3 DUP5 SUB SLT ISZERO PUSH2 0x668 JUMPI PUSH2 0x667 PUSH2 0x625 JUMP JUMPDEST JUMPDEST PUSH0 PUSH2 0x675 DUP5 DUP3 DUP6 ADD PUSH2 0x63F JUMP JUMPDEST SWAP2 POP POP SWAP3 SWAP2 POP POP JUMP JUMPDEST PUSH0 PUSH1 0x20 DUP3 ADD SWAP1 POP PUSH2 0x691 PUSH0 DUP4 ADD DUP5 PUSH2 0x5D3 JUMP JUMPDEST SWAP3 SWAP2 POP POP JUMP JUMPDEST PUSH0 PUSH1 0x60 DUP3 ADD SWAP1 POP PUSH2 0x6AA PUSH0 DUP4 ADD DUP7 PUSH2 0x5D3 JUMP JUMPDEST PUSH2 0x6B7 PUSH1 0x20 DUP4 ADD DUP6 PUSH2 0x5D3 JUMP JUMPDEST PUSH2 0x6C4 PUSH1 0x40 DUP4 ADD DUP5 PUSH2 0x5D3 JUMP JUMPDEST SWAP5 SWAP4 POP POP POP POP JUMP JUMPDEST PUSH0 DUP2 MLOAD SWAP1 POP SWAP2 SWAP1 POP JUMP JUMPDEST PUSH0 DUP3 DUP3 MSTORE PUSH1 0x20 DUP3 ADD SWAP1 POP SWAP3 SWAP2 POP POP JUMP JUMPDEST DUP3 DUP2 DUP4 MCOPY PUSH0 DUP4 DUP4 ADD MSTORE POP POP POP JUMP JUMPDEST PUSH0 PUSH1 0x1F NOT PUSH1 0x1F DUP4 ADD AND SWAP1 POP SWAP2 SWAP1 POP JUMP JUMPDEST PUSH0 PUSH2 0x70E DUP3 PUSH2 0x6CC JUMP JUMPDEST PUSH2 0x718 DUP2 DUP6 PUSH2 0x6D6 JUMP JUMPDEST SWAP4 POP PUSH2 0x728 DUP2 DUP6 PUSH1 0x20 DUP7 ADD PUSH2 0x6E6 JUMP JUMPDEST PUSH2 0x731 DUP2 PUSH2 0x6F4 JUMP JUMPDEST DUP5 ADD SWAP2 POP POP SWAP3 SWAP2 POP POP JUMP JUMPDEST PUSH0 PUSH1 0x60 DUP3 ADD SWAP1 POP PUSH2 0x74F PUSH0 DUP4 ADD DUP7 PUSH2 0x5BB JUMP JUMPDEST PUSH2 0x75C PUSH1 0x20 DUP4 ADD DUP6 PUSH2 0x5D3 JUMP JUMPDEST DUP2 DUP2 SUB PUSH1 0x40 DUP4 ADD MSTORE PUSH2 0x76E DUP2 DUP5 PUSH2 0x704 JUMP JUMPDEST SWAP1 POP SWAP5 SWAP4 POP POP POP POP JUMP JUMPDEST PUSH0 DUP2 ISZERO ISZERO SWAP1 POP SWAP2 SWAP1 POP JUMP JUMPDEST PUSH2 0x78C DUP2 PUSH2 0x778 JUMP JUMPDEST DUP3 MSTORE POP POP JUMP JUMPDEST PUSH0 PUSH1 0x60 DUP3 ADD SWAP1 POP PUSH2 0x7A5 PUSH0 DUP4 ADD DUP7 PUSH2 0x783 JUMP JUMPDEST PUSH2 0x7B2 PUSH1 0x20 DUP4 ADD DUP6 PUSH2 0x783 JUMP JUMPDEST PUSH2 0x7BF PUSH1 0x40 DUP4 ADD DUP5 PUSH2 0x783 JUMP JUMPDEST SWAP5 SWAP4 POP POP POP POP JUMP JUMPDEST PUSH0 PUSH32 0xFFFFFFFF00000000000000000000000000000000000000000000000000000000 DUP3 AND SWAP1 POP SWAP2 SWAP1 POP JUMP JUMPDEST PUSH2 0x7FB DUP2 PUSH2 0x7C7 JUMP JUMPDEST DUP3 MSTORE POP POP JUMP JUMPDEST PUSH0 PUSH1 0x60 DUP3 ADD SWAP1 POP PUSH2 0x814 PUSH0 DUP4 ADD DUP7 PUSH2 0x5D3 JUMP JUMPDEST PUSH2 0x821 PUSH1 0x20 DUP4 ADD DUP6 PUSH2 0x7F2 JUMP JUMPDEST PUSH2 0x82E PUSH1 0x40 DUP4 ADD DUP5 PUSH2 0x5D3 JUMP JUMPDEST SWAP5 SWAP4 POP POP POP POP JUMP JUMPDEST PUSH32 0x4E487B7100000000000000000000000000000000000000000000000000000000 PUSH0 MSTORE PUSH1 0x11 PUSH1 0x4 MSTORE PUSH1 0x24 PUSH0 REVERT JUMPDEST PUSH0 PUSH2 0x86D DUP3 PUSH2 0x5CA JUMP JUMPDEST SWAP2 POP PUSH2 0x878 DUP4 PUSH2 0x5CA JUMP JUMPDEST SWAP3 POP DUP3 DUP3 SUB SWAP1 POP DUP2 DUP2 GT ISZERO PUSH2 0x890 JUMPI PUSH2 0x88F PUSH2 0x836 JUMP JUMPDEST JUMPDEST SWAP3 SWAP2 POP POP JUMP JUMPDEST PUSH32 0x4E487B7100000000000000000000000000000000000000000000000000000000 PUSH0 MSTORE PUSH1 0x32 PUSH1 0x4 MSTORE PUSH1 0x24 PUSH0 REVERT JUMPDEST PUSH32 0x4E487B7100000000000000000000000000000000000000000000000000000000 PUSH0 MSTORE PUSH1 0x41 PUSH1 0x4 MSTORE PUSH1 0x24 PUSH0 REVERT JUMPDEST PUSH32 0x4E487B7100000000000000000000000000000000000000000000000000000000 PUSH0 MSTORE PUSH1 0x31 PUSH1 0x4 MSTORE PUSH1 0x24 PUSH0 REVERT INVALID LOG2 PUSH5 0x6970667358 0x22 SLT KECCAK256 0x29 DUP7 0xB8 CREATE2 SWAP9 SHR 0x4C 0xBA 0xBF 0xBB 0xD4 ADD PUSH23 0x3A08F889A060DF4C822BCB021D3E775208406364736F6C PUSH4 0x4300081E STOP CALLER "
		},
		"gasEstimates": {
			"creation": {
				"codeDepositCost": "477400",
				"executionCost": "infinite",
				"totalCost": "infinite"
			},
			"external": {
				"Array()": "infinite",
				"UnitAndTime()": "infinite",
				"array1(uint256)": "infinite",
				"array4(uint256)": "infinite",
				"changeArray()": "24469",
				"giveValue()": "187",
				"global()": "infinite",
				"global2()": "infinite",
				"global3()": "infinite",
				"x(uint256)": "infinite"
			}
		},
		"methodIdentifiers": {
			"Array()": "9607b362",
			"UnitAndTime()": "a43d423f",
			"array1(uint256)": "4bae89cb",
			"array4(uint256)": "cbdef3f9",
			"changeArray()": "2b723b7f",
			"giveValue()": "adca666e",
			"global()": "a05f9906",
			"global2()": "05b97db6",
			"global3()": "e1640d85",
			"x(uint256)": "3f4263ef"
		}
	},
	"abi": [
		{
			"inputs": [],
			"name": "Array",
			"outputs": [
				{
					"internalType": "uint256",
					"name": "",
					"type": "uint256"
				},
				{
					"internalType": "uint256",
					"name": "",
					"type": "uint256"
				},
				{
					"internalType": "uint256",
					"name": "",
					"type": "uint256"
				}
			],
			"stateMutability": "nonpayable",
			"type": "function"
		},
		{
			"inputs": [],
			"name": "UnitAndTime",
			"outputs": [
				{
					"internalType": "bool",
					"name": "",
					"type": "bool"
				},
				{
					"internalType": "bool",
					"name": "",
					"type": "bool"
				},
				{
					"internalType": "bool",
					"name": "",
					"type": "bool"
				}
			],
			"stateMutability": "pure",
			"type": "function"
		},
		{
			"inputs": [
				{
					"internalType": "uint256",
					"name": "",
					"type": "uint256"
				}
			],
			"name": "array1",
			"outputs": [
				{
					"internalType": "uint256",
					"name": "",
					"type": "uint256"
				}
			],
			"stateMutability": "view",
			"type": "function"
		},
		{
			"inputs": [
				{
					"internalType": "uint256",
					"name": "",
					"type": "uint256"
				}
			],
			"name": "array4",
			"outputs": [
				{
					"internalType": "uint256",
					"name": "",
					"type": "uint256"
				}
			],
			"stateMutability": "view",
			"type": "function"
		},
		{
			"inputs": [],
			"name": "changeArray",
			"outputs": [],
			"stateMutability": "nonpayable",
			"type": "function"
		},
		{
			"inputs": [],
			"name": "giveValue",
			"outputs": [],
			"stateMutability": "nonpayable",
			"type": "function"
		},
		{
			"inputs": [],
			"name": "global",
			"outputs": [
				{
					"internalType": "address",
					"name": "",
					"type": "address"
				},
				{
					"internalType": "uint256",
					"name": "",
					"type": "uint256"
				},
				{
					"internalType": "bytes",
					"name": "",
					"type": "bytes"
				}
			],
			"stateMutability": "nonpayable",
			"type": "function"
		},
		{
			"inputs": [],
			"name": "global2",
			"outputs": [
				{
					"internalType": "bytes32",
					"name": "",
					"type": "bytes32"
				},
				{
					"internalType": "address",
					"name": "",
					"type": "address"
				},
				{
					"internalType": "uint256",
					"name": "",
					"type": "uint256"
				},
				{
					"internalType": "uint256",
					"name": "",
					"type": "uint256"
				}
			],
			"stateMutability": "nonpayable",
			"type": "function"
		},
		{
			"inputs": [],
			"name": "global3",
			"outputs": [
				{
					"internalType": "uint256",
					"name": "",
					"type": "uint256"
				},
				{
					"internalType": "bytes4",
					"name": "",
					"type": "bytes4"
				},
				{
					"internalType": "uint256",
					"name": "",
					"type": "uint256"
				}
			],
			"stateMutability": "payable",
			"type": "function"
		},
		{
			"inputs": [
				{
					"internalType": "uint256",
					"name": "",
					"type": "uint256"
				}
			],
			"name": "x",
			"outputs": [
				{
					"internalType": "uint256",
					"name": "",
					"type": "uint256"
				}
			],
			"stateMutability": "view",
			"type": "function"
		}
	]
}